:020000040800F2
:1000000060080020F1010008811E00084518000862
:100010007D1E00088F160008932B000800000000CA
:100020000000000000000000000000002120000887
:100030009316000800000000091F00083521000881
:100040000B0200080B0200080B0200080B0200085C
:100050000B0200080B0200080B0200080B0200084C
:100060000B0200080B0200080B0200080B0200083C
:100070000B0200080B0200080B0200080B0200082C
:100080000B0200080B0200080B0200080B0200081C
:100090000B0200080B0200080B0200080B0200080C
:1000A0000B0200080B0200080B0200080B020008FC
:1000B0000B0200080B0200080B0200080B020008EC
:1000C0000B0200080B0200080B0200080B020008DC
:1000D0000B020008712900080B0200080B0200083F
:1000E0000B0200080B0200080B0200080B020008BC
:1000F0000B0200080B0200080B0200080B020008AC
:100100000B0200080B020008792300080B0200080C
:100110000B0200080B020008C12400080B020008B3
:100120000B0200080B0200080B0200080B0200087B
:1001300000F002F800F04DF80AA090E8000C8244AC
:100140008344AAF10107DA4501D100F042F8AFF289
:10015000090EBAE80F0013F0010F18BFFB1A43F0A5
:10016000010318474082000060820000103A24BF5B
:1001700078C878C1FAD8520724BF30C830C144BF0C
:1001800004680C607047000000230024002500264E
:10019000103A28BF78C1FBD8520728BF30C148BFEA
:1001A0000B607047662907F06A81642900F0C280FD
:1001B000632900F0C184002070471FB500F0FCFCEB
:1001C00004000020002106F07DF8E0601FBD10B59E
:1001D00010BD00F035FE1146FFF7EFFF04F0EEFB17
:1001E00000F053FE03B4FFF7F2FF03BC02F057FD2B
:1001F0000948804709480047FEE7FEE7FEE7FEE7BB
:10020000FEE7FEE7FEE7FEE7FEE7FEE704480549F6
:10021000054A064B704700003921000831010008EB
:1002200060020020600800206004002060040020BC
:10023000704710B54C1084EA530404D54042C1F114
:10024000000138BF491E1B4204D55242C3F10003CE
:1002500038BF5B1E00F07EF914F0804F04D040429E
:10026000C1F1000138BF491E14F0004F04D05242C2
:10027000C3F1000338BF5B1E10BD00000FB404497A
:1002800010B503AA029800F063FC10BC5DF814FBE3
:100290006C00002070B5044685690068C10601D570
:1002A000302600E02026C00707D070BDD4E9012128
:1002B00030469047206A401C20626D1EF6D570BD06
:1002C00070B5044685690078C00707D170BDD4E9D0
:1002D000012120209047206A401C20626D1EF6D527
:1002E00070BD70B50C460546012A05D028788006F9
:1002F00000D5EA69002302E0012305E05B1C93427C
:1003000002D2E05C0028F9D1A869E618C01AA861F9
:10031000286A184428622846FFF7BCFF04E0D5E9A4
:10032000012114F8010B9047B442F8D32846FFF797
:10033000C7FF70BD2DE9F0410646002410687529FD
:10034000314616A510D0AFF30080002802DA4042F3
:1003500013A507E031688A0701D512A502E0490715
:1003600004D511A5012401E0AFF3008000210A2289
:1003700006F1240709E0B0FBF2FCB0FBF2F302FB4C
:100380001C00303078541846491C0028F3D123460D
:100390002A463046BDE8F04100F05EB9000000009A
:1003A0002D0000002B000000200000002DE9F05F70
:1003B000894604464FF0000ADFF824B1FB44C0F838
:1003C00020A02046E168884700287DD0252806D057
:1003D000D4E901219047206A401C2062F1E7002502
:1003E0005F462046E16888472028064607DB312E15
:1003F00005D2B81910F8200C08B10543F1E7A80799
:1004000001D525F00405C4F81CA00027C4F818A0E5
:100410002A2E09D0304602F03BFC38B304EB8708A3
:10042000303EC8F8186019E059F8041B204604EB68
:1004300087029161E1688847012F064618D1E0697B
:10044000002820DA25F020051DE0D8F8180000EB80
:10045000800006EB40003038C8F818002046E168FC
:100460008847064602F014FC0028EED1012F0AD07E
:100470002E2E08D12046E16888477F1C0646022FB1
:1004800045F02005C4DBA069002803DA404245F0AE
:100490000105A061E80701D025F01005A6B1A6F17D
:1004A0004100192802D8203645F400654A463146F5
:1004B000204625604D46FFF775FE60B1012807D044
:1004C000ED1D25F0070000E007E000F1080978E7DE
:1004D00005F1040975E730467AE7206ABDE8F09F28
:1004E000FA7D000040EA010310B59B070FD1042AF2
:1004F0000DD310C808C9121F9C42F8D020BA19BAEF
:10050000884201D9012010BD4FF0FF3010BD1AB153
:10051000D30703D0521C07E0002010BD10F8013BA8
:1005200011F8014B1B1B07D110F8013B11F8014BCF
:100530001B1B01D1921EF1D1184610BD02F0FF0322
:1005400043EA032242EA024200F016BB70477047BA
:100550007047704753EA020C00F069802DE9F04BB8
:100560004FF00006002B1FBFB3FA83F503FA05F422
:1005700024FA05F65E4012BF1643B2FA82F502FA7B
:1005800005F4C5F120051EBF22FA05FC44EA0C045F
:10059000203556EA044C4FEA144418BF641C4FF04F
:1005A00000084FF00009904271EB030C39D3002989
:1005B00019BFB1FA81F701FA07F6B0FA80F700FA2D
:1005C00007F6C7F120071EBF20FA07FC46EA0C0613
:1005D0002037B6FBF4FCA7EB0507103F07F01F0B15
:1005E000CBF120060CFA0BFB2CFA06F644BFB346FF
:1005F0000026202FA4BF5E464FF0000B5BEA060CDE
:1006000008BF4FF0010B19EB0B09ABFB027C48EB69
:100610000608C01B06FB02CC0BFB03CC71EB0C01E4
:10062000C1E70B46024641464846BDE8F08B13B58C
:100630004FF000004FF00001AFF30080BDE81C4018
:10064000704710B500F0BCFA006810BD10B5044644
:1006500000F0B6FA046010BD2DE9F0470D4699464A
:100660009246044600F124080168880604D5E06932
:1006700021F01001216000E00120A84201DD471BAC
:1006800000E00027A1697A1902EB0900081AA061AD
:100690002078C00602D42046FFF7FCFD002608E0C3
:1006A000D4E901211AF806009047206A401C761C04
:1006B00020624E45F4DB2078C0060AD52046FFF7BD
:1006C000E9FD06E0D4E9012130209047206A401C72
:1006D0002062381EA7F10107F4DC07E0D4E901210C
:1006E00018F805009047206A401C2062281EA5F1DA
:1006F0000105F3DC2046FFF7E3FD2078000602D574
:100700000220BDE8F0870120FBE770472DE9FF4F8D
:100710000C461E464FF0FF378BB0D2E90001DDF8E2
:1007200060800A908A46C1F30A5505B93D4600210A
:1007300008464FF00000BAF1000F00F4400005DA5F
:1007400000EB80004FF4400101EA50004FEA90595D
:10075000B9F1010F00DDB9460A9850EA4A000ED0FF
:1007600044F61050A5F2FF3545432F14B8F1000FA1
:100770001ED07542291E1EDDC9F100021CE0B8F131
:10078000010F4FF0000001D0302103E0F24305E0FB
:100790002154401CB042FBDB304600220021215492
:1007A0000B99C1F80880C1E900200FB0BDE8F08FB7
:1007B000BD1B6D1CDEE74A4600DA694206A800F060
:1007C000A1FA06AB93E8070003AB83E807005046A5
:1007D0000A9900F0A1FB8DE80700A0F500501F3832
:1007E00000900398002D09DD42F21F014A4608449B
:1007F00003A90390684600F000FE08E0A0F5005051
:100800004A461F3803A90390684600F00AFE8DE8A7
:1008100007000004000C03D04FF0FF30410800E057
:100820001046B8F1000F03D00022009215461EE0DA
:10083000751E05D400F0C8F9303262556D1EF9D529
:10084000B3460122084302D000227F1C04E0207836
:10085000302801D100227F1E002A099786D01DE092
:10086000112D07DA00F0B0F9303262556D1C50EAF4
:100870000102F5D1084302D00098C8B10EE0002172
:10088000681E05E0235C625C63542254401E491CD0
:100890008142F7DBAB46A81B401E0990002004F8FC
:1008A0000B000B98099AC0F80880C0E9002B7CE780
:1008B00011264FF0000859E72DE9F04F884604460D
:1008C000D21D22F0070191B0D1E90001CDE90A0162
:1008D00002F061F902460B98C00F01D02D2007E00D
:1008E0002068810701D52B2002E0202101EAC00009
:1008F000032A099001D0072A05DB0346414620461A
:1009000000F0C0F90BE12078800601D5E06900E035
:100910000620B8F1650F814606D0B8F1660F18D0F1
:10092000B8F1670F70D131E00020B9F1110F0090DC
:1009300001DB112301E009F101030AAA01A90CA8B6
:10094000FFF7E4FEDDE90C70002609F1010583469E
:1009500047E001204B4600904FF000470AAA01A94A
:100960000CA8FFF7D3FEDDE90DB00C995D4600261B
:1009700010B909F101000D18B9EB050003D4C0F15D
:10098000FF3609F10105A5EB09002BE0B9F1010FD4
:1009900001DA4FF001090020B9F1110F009048462B
:1009A00001DD112300E003460AAA01A90CA8FFF704
:1009B000ADFEDDE90C704D46002683462078000729
:1009C0000AD4AB4500DA5D4601A8012D04DD4119CA
:1009D00011F8011C302907D04F4502DA17F1040F36
:1009E00004DA012082460FE06D1EEEE7002F02DCE4
:1009F000ED1B3E4403E0781CA84200DD7D1CB81BC3
:100A000000F1010A4FF000472078000703D4AA45FF
:100A100001DB4FF0FF3A0021B7F1004F0DF1430821
:100A20008DF8431024D002202B23002F01DA7F42BF
:100A30002D230A21021EA0F1010000DC5FB197FB0B
:100A4000F1FC97FBF1F201FB1C7C17460CF1300C1A
:100A500008F801CDEEE7A8F101000370218809052F
:100A600001D5452100E06521A0F1010800F8011C35
:100A700009980FA9A1EB0807FF1D00B1012041193A
:100A800001EBEA70A1693844081A401EA061207881
:100A9000C00602D42046FFF7FDFB099828B1D4E92F
:100AA00001219047206A401C20622078C00622D590
:100AB0002046FFF7EFFB1EE0002E04DBB34502DD0E
:100AC00001A8805D00E03020D4E901219047206A30
:100AD000401C2062761CAAF101005FEA000A0AD1DC
:100AE00000F06AF8C0680168405CD4E901219047D1
:100AF000206A401C2062281EA5F10105DCDC07E00D
:100B0000D4E9012118F8010B9047206A401C2062AB
:100B1000381EA7F10107F3DC2046FFF7D1FB0320C5
:100B200011B043E610B5436913B1AFF3008001E0A3
:100B3000FFF7D7FB012010BD127800F124010A70E5
:100B400000224A700122EDE711684FF0FF32E9E719
:100B5000074B70B50D467B4400F081F804462846EB
:100B600000F03EF910B14FF0FF3070BD204670BD6F
:100B70009F3600004FF000020429C0F0128010F0F0
:100B8000030C00F03381CCF1040CBCF1020F18BF50
:100B900000F8012BA8BF20F8022BA1EB0C0100F0FC
:100BA00025B95FEAC17C24BF00F8012B00F8012BB6
:100BB00048BF00F8012B7047004870471C02002016
:100BC00000487047FC01002030B5B0F10A024FEA3E
:100BD000900E71F100034EEA817EB0EB0E0061EBE6
:100BE00091014FEA101E4EEA017E10EB0E0041EB20
:100BF00011114FEA102E4EEA016E10EB0E0041EB80
:100C000011214FEA104E4EEA014E10EB0E0041EB5F
:100C10001141401841F100014FEAD00040EA417013
:100C20004FEAD10110EB80054FEA810444EA907449
:100C300044EB01046D1944EB0404521BA3414FF033
:100C4000000348BF0A3200D530BD401C41F100010D
:100C500030BD000001694A1C02610878704700B588
:100C60008FB0CDE901310021059105497944CDE9E5
:100C7000031011466846FFF799FB0FB000BD000056
:100C8000E5FFFFFF2DE9F0411F46044603260168FA
:100C9000072A01F4006004DB08B116A505E016A5DB
:100CA00003E008B115A500E015A521F010002060B3
:100CB000A069C01EA0610FB1401EA0612046FFF7D1
:100CC000E9FA4FB1D4E9012138469047206A401C27
:100CD0002062C01C206206E0206AFAE7D4E9012104
:100CE00015F8010B9047761EF8D22046FFF7E8FA78
:100CF000BDE8F0814E414E006E616E00494E4600E7
:100D0000696E66002DE9F047814616468AB0334881
:100D100078440DC88DE80D0030487844801C03AC41
:100D20000DC884E80D0041F69B300844372190FB44
:100D3000F1F290FBF1F5A5F1800501FB12041B3CDB
:100D400002D56442012000E00020DFF890A0804638
:100D50000027FA44AAF1BE0A0DE0E00709D03246A6
:100D6000684607EB47010AEB810100F05AFB8DE86A
:100D7000070064107F1C002CEFD1184F7F44AC3F5C
:100D800018E0E80714D007EB04100DF1180A90E8FA
:100D90000E008AE80E00C068F04201D19819089050
:100DA000324606A903A800F03CFB03AB83E807002A
:100DB0006D10641C002DE4D132466946B8F1000F75
:100DC00003A802D000F019FB01E000F02AFBC9E9FA
:100DD0000001C9F808200AB0BDE8F08728760000B5
:100DE000007B00F0800070474FF0000200B5134612
:100DF00094469646203922BFA0E80C50A0E80C503B
:100E0000B1F12001BFF4F7AF090728BFA0E80C50EB
:100E100048BF0CC05DF804EB890028BF40F8042BE4
:100E200008BF704748BF20F8022B11F0804F18BF51
:100E300000F8012B7047000000487047FC010020BB
:100E40007546FFF7F9FFAE4605006946534620F0A8
:100E50000700854618B020B5FFF7D8F9BDE8204057
:100E60004FF000064FF000074FF000084FF0000B66
:100E700021F00701AC46ACE8C009ACE8C009ACE819
:100E8000C009ACE8C0098D4670470446AFF3008046
:100E90002046FFF7A7F900004FF0013C50F8042B63
:100EA00051F8043B9A4221D1A2EB0C03934313EA7D
:100EB000CC1317D150F8042B51F8043B9A4215D1AA
:100EC000A2EB0C03934313EACC130BD150F8042B81
:100ED00051F8043B9A4209D1A2EB0C03934313EA65
:100EE000CC13DBD04FF00000704700BFD01A01BA1E
:100EF000B1FA81F101F0180122FA01F0CB40C1F101
:100F00002001DBB2C0B2C01A2CFA01F3D11A91430E
:100F100011EAC311E6D170475FEA400C08BF91F0B7
:100F2000000F4FEA8C234FEAC12243EA51514FEAA6
:100F30001C5018BF00F5F0404FEA300018BF41F0D8
:100F400000415FEA6C5C00F02980BCF1FF3F08BF04
:100F500040F080407047130C06BF12044FF0100C95
:100F60004FF0000C130E04BF12020CF1080C130F0B
:100F700004BF12010CF1040C930F04BF92000CF19A
:100F8000020CD30F04BF52000CF1010C11464FF0BC
:100F90000002A0F11F00A0EB0C00704711F0004F01
:100FA00008BF704731F000413FF4D5AF0B0C06BFCE
:100FB00009044FF0100C4FF0000C0B0E04BF090297
:100FC0000CF1080C0B0F04BF09010CF1040C8B0F82
:100FD00004BF89000CF1020CCB0F04BF49000CF1D7
:100FE000010CCCF12003A0EB0C0022FA03F302FA6F
:100FF0000CF241EA030100F10100704720F07F4C40
:1010000080EA030023F07F47ACEB070303F57C5332
:1010100000F0004003F1FF032DE980494FEA154B32
:1010200009B44FEA144325EA0B4E24EA03480FF2B1
:10103000042606EB132749083E785FEA320203FBD9
:101040000667C7F5000707FB06F64FEA54374FEA75
:10105000D64606F1020607FB066CCCF1005C4FEAAF
:101060001C472CEA074C07FB06F40CFB06F504EBC7
:1010700015464FEA961634BF00204FF000404FEA65
:10108000D13706FB07FC4FEA1C4C0CFB0BF7D21BBD
:1010900003FB0CF761EB07010CFB0EF7B0EB07400D
:1010A00072EB17420CFB08F734BFA2EB0742B2EB1E
:1010B000074261EB17414FEA0C444FEA910706FBE8
:1010C00007FC4FEA1C4C0CFB0BF7B0EBC74072EB74
:1010D000573203FB0CF734BFA2EBC742B2EBC74257
:1010E00061EB57310CFB0EF7B0EBC70072EB577298
:1010F0000CFB08F734BFA2EBC702B2EBC70261EBEF
:101100005771039F4FEA816141EA921104EBCC04CD
:101110004FEAD1374FEA826206FB07FC42EA90129F
:101120004FEA80604FEA1C4C0CFB0BF7D21B03FB11
:101130000CF761EB07010CFB0EF7B0EB074072EB0D
:1011400017420CFB08F734BFA2EB0742B2EB074291
:1011500061EB17414FEA8C554FEA910704EB9C2451
:1011600006FB07FC4FEA1C4C0CFB0BF7B0EBC7402F
:1011700072EB573203FB0CF734BFA2EBC742B2EB62
:10118000C74261EB57310CFB0EF7B0EBC70072EBB7
:1011900057720CFB08F734BFA2EBC702B2EBC702D1
:1011A00061EB577115EB4C254FEA816141EA9211D1
:1011B0004FEA82624FEAD13742EA901206FB07FCFF
:1011C00044F100044FEA80604FEA1C4C0CFB0BF723
:1011D000D21B03FB0CF761EB07010CFB0EF7B0EB26
:1011E000074072EB17420CFB08F734BFA2EB074233
:1011F000B2EB074261EB174115EB1C154FEA813149
:1012000041EA92414FEA823242EA90424FEA80300C
:101210004FEA0C7644F1000448EA03434EEA0B48D7
:101220004FF0000EB2EB080C71EB030724BF6246CF
:1012300039464EEB0E0E4FF0000B0018524149415B
:101240004BEB0B0BB2EB080C71EB03077BF1000BC4
:1012500024BF624639464EEB0E0E4FF0000B0018CD
:10126000524149414BEB0B0BB2EB080C71EB0307FE
:101270007BF1000B24BF624639464EEB0E0E51EA5D
:10128000020718BF46F0010616EB0E7655F1000274
:1012900054F1000103D5BDE88901BDE80088BDE82F
:1012A0008901BDE80048B619524141EB0101A3F1A3
:1012B0000103704780807F7E7D7C7B7A79787776AA
:1012C00076757473727171706F6E6E6D6C6C6B6A23
:1012D0006A696868676666656464636362616160C1
:1012E000605F5F5E5E5D5D5C5C5B5B5A5A5959583E
:1012F00058575756565555555454535352525251A8
:10130000515050504F4F4F4E4E4D4D4D4C4C4C4BFD
:101310004B4B4A4A4A494949484848474747474644
:101320004646454545444444444343434342424280
:1013300042414141002B26D4770021D01CB54FEA11
:10134000370703B44FF010004FF010014FF00000CA
:101350000FBCBDE810400BF1010BBBF1010F08BF42
:101360005FEA170722BF12F1010211F101014FF0EC
:10137000004143F1000300F0004043EA00007047E1
:10138000F9D35708DAE746EA064613F1400F4FEA69
:1013900016461FDD13F1200FDFBF16430A4600215A
:1013A00020335B42C8D0C3F1200746EA064602FA62
:1013B00007F74FEA164646EA0706C3F1200722FA66
:1013C00003F201FA07F721FA03F14FF0000342EAB2
:1013D0000702B1E746EA020646EA06464FEA164623
:1013E00046EA0106BCBF46EA0646360C4FF000034B
:1013F0004FF000024FF000019EE72DE9C0489346F0
:1014000030B491E8380007C831EA400C48BF34EAEC
:10141000430C03D5FFF7F2FDFFF78CFFF0BCBDE8EE
:1014200000882DE9C048934630B491E8380007C8D9
:1014300010F0804F08BF13F0804F03D100F005F883
:10144000FFF778FFF0BCBDE8008820F07F4780EA16
:10145000030023F07F4C07EB0C03A3F57C5300F053
:101460000040A3F1FE0392F0000F00F0B38095F06E
:10147000000F00F077802DE901494FEA11404FEA53
:10148000144621EA004800FB06FC24EA064708FB54
:1014900006F607FB08F800FB07F718EB06484CEBCD
:1014A000164C4FEA124B18EB07484FEA15464CEB27
:1014B000174022EA0B4E0BFB06FC25EA06470EFB03
:1014C00006F607FB0EFE0BFB07F71EEB064E4CEB7A
:1014D000164C4FF000061EEB074E4CEB174B18EB6B
:1014E0000B0840F1000018EB0E0B58EB000840F120
:1014F00000008F1A4FF000013CBFC943661B14BFA8
:10150000B5EB040C00213CBFC943F61B4FEA17445E
:101510004EEA8E0E27EA04454FEA1C4704FB076299
:101520002CEA074C05FB07F70CFB05F604FB0CFC4B
:1015300016EB074642EB174216EB0C4642EB1C42F9
:101540001BEB060658EB0202414146EA9E0601D516
:10155000BDE80189B619524141EB0101A3F1010334
:10156000BDE801894FEA14454FEA114724EA0546D0
:1015700021EA074C05FB07F406FB07F70CFB06F115
:1015800005FB0CFC11EB074144EB17444FEA1247F3
:1015900011EB0C4144EB1C4422EA074C05FB07F21B
:1015A00006FB07F70CFB06F605FB0CFC16EB0746E3
:1015B00042EB174216EB0C4642EB1C456A1854F1FD
:1015C000000148BF7047B619524141EB0101A3F138
:1015D0000103704795F0000F37D04FEA11424FEAF0
:1015E000144721EA024624EA074C02FB07F106FBF6
:1015F00007F70CFB06F402FB0CFC14EB074441EB71
:1016000017414FEA154714EB0C4441EB1C4125EA06
:10161000074C02FB07F506FB07F70CFB06F602FB7F
:101620000CFC16EB074645EB174516EB0C4645EB55
:101630001C42121951F1000148BF7047B6195241BE
:1016400041EB0101A3F1010370474FEA14454FEA52
:10165000114724EA054621EA074C05FB07F106FB82
:1016600007F70CFB06F24FF0000605FB0CFC12EB33
:10167000074241EB174112EB0C4251EB1C4148BFB2
:101680007047921841EB0101A3F10103704700BFBD
:10169000FEE770472DE9F0410246002500260020B4
:1016A00000230024002791F803C00CF00F0591F8E7
:1016B00003C00CF0100CBCF1000F03D091F802C075
:1016C0004CEA050591F800C0BCF1000F31D0146858
:1016D00000202BE04FF0010C0CFA00F3B1F800C031
:1016E0000CEA03069E4220D183004FF00F0C0CFA47
:1016F00003F7BC4305FA03FC4CEA040491F803C069
:10170000BCF1280F06D14FF0010C0CFA00FCC2F816
:1017100014C00AE091F803C0BCF1480F05D14FF0A6
:10172000010C0CFA00FCC2F810C0401C0828D1D3F0
:101730001460B1F800C0BCF1FF0F34DD5468002024
:101740002EE000F1080C4FF0010808FA0CF3B1F894
:1017500000C00CEA03069E4221D183004FF00F0C1B
:101760000CFA03F7BC4305FA03FC4CEA040491F8B5
:1017700003C0BCF1280F05D100F1080C08FA0CF8E1
:10178000C2F8148091F803C0BCF1480F07D100F1F2
:10179000080C4FF0010808FA0CF8C2F81080401C41
:1017A0000828CED35460BDE8F0810000F0B50A46A9
:1017B000002300240021002500F00046B6F1004F70
:1017C00002D11D4EF16901E01B4E7168C0F3034563
:1017D00083B200F44016B6F5401F08D121F07061C5
:1017E000154E766826F07066134F7E6012E000F4A6
:1017F0008016B6F5801F06D1032606FA05F4A1432C
:1018000041F0706106E0460D360103FA06F6B14379
:1018100041F0706122B1460D360103FA06F63143FC
:1018200000F00046B6F1004F02D1034EF16101E035
:10183000014E7160F0BD0000000001404161704741
:101840000161704700BFFEE710B54FF480510648B4
:10185000FFF7F6FFC82001F0A9FE4FF480510248BF
:10186000FFF7ECFF10BD0000000C014008B501219E
:10187000082000F05BFB4FF48050ADF80000102012
:101880008DF8030003208DF8020069461448FFF725
:1018900001FF4FF480511248FFF7D0FF4FF48060F2
:1018A000ADF8000010208DF8030003208DF8020031
:1018B00069460B48FFF7EEFE4FF480610848FFF7DA
:1018C000BDFF4FF40060ADF8000028208DF8030044
:1018D00003208DF8020069460148FFF7DBFE08BDD2
:1018E000000C01402DE9FC4104460D4616466B46AE
:1018F00006223B21682000F0EBF90746BFB99DF8AE
:1019000001009DF8001040EA012000B220809DF8FF
:1019100003009DF8021040EA012000B228809DF8E3
:1019200005009DF8041040EA012000B230803846DE
:10193000BDE8FC812DE9FC4104460D4616466B4688
:1019400006224321682000F0C3F90746BFB99DF87D
:1019500001009DF8001040EA012000B220809DF8AF
:1019600003009DF8021040EA012000B228809DF893
:1019700005009DF8041040EA012000B2308038468E
:10198000BDE8FC8110B500200E4908600E48406893
:1019900020F470400C4948600846406840F44050CC
:1019A000486000200949C1F8AC0100F011F801209D
:1019B0000449086000F00CF800200449C1F8B001A7
:1019C00010BD0000B0012242001001400000224280
:1019D00010B5022001F010FE10BD000008B5012175
:1019E000102000F0A3FA4FF4C050ADF80000102012
:1019F0008DF8030003208DF8020069460448FFF7C4
:101A000049FE4FF4C0510248FFF71AFF08BD00001D
:101A10000010014010B500200E4908600E484068D3
:101A200020F470400C4948600846406840F440503B
:101A3000486001200949C1F8AC01FFF7C9FF012046
:101A400004490860FFF7C4FF00200449C1F8B00151
:101A500010BD0000B00122420010014000002242EF
:101A600070B5054600241648406820F470401449BB
:101A700048600846406840F400404860002614E092
:101A8000002010490860FFF7A3FF01200E49C1F8AC
:101A9000B0016006040E0B488438006808B1601C71
:101AA000C4B2FFF795FF701CC6B2082EE8DB15B96B
:101AB000FFF7B0FF01E0FFF765FF204670BD0000B3
:101AC00000100140B00122420000224270B50446DD
:101AD0001248406820F47040104948600846406849
:101AE00040F44050486000200D490860002512E095
:101AF000E0090B49091F08606006040E012009492E
:101B0000C1F8B001FFF764FF002005490860FFF746
:101B10005FFF681CC5B2082DEADB70BD00100140F4
:101B2000B00122420000224210B50E48406820F465
:101B300070400C4948600846406840F44050486096
:101B40000120094908600949C1F8B001FFF740FFC9
:101B5000002005490860FFF73BFF00200349C1F85A
:101B6000B00110BD00100140AC0122420000224231
:101B700010B50E48406820F470400C494860084693
:101B8000406840F440504860002009490860094915
:101B9000C1F8AC01FFF71CFF0120054908600549A9
:101BA000C1F8AC01FFF714FF10BD000000100140A8
:101BB000B00122420000224210B5002414484068BF
:101BC00020F47040124948600846406840F40040E4
:101BD000486001200F490860FFF7FAFE01200E4916
:101BE000C1F8B001FFF7F4FE07E0601CC4B2FA2CA4
:101BF00003DDFFF7BDFF012010BD064880380068F7
:101C00000028F2D10349091D086000BFF4E7000075
:101C100000100140AC0122420000224210B5FFF743
:101C2000DDFE80216B2000F0D7F8642001F0BEFCBF
:101C300000216B2000F0D0F8032000F08BF800208A
:101C400000F080F8322000F0AAF80021382000F0DF
:101C5000C3F800216A2000F0BFF80021232000F023
:101C6000BBF88021372000F0B7F8752000F013F89A
:101C70000446682C0BD101216B2000F0ADF8002147
:101C80006C2000F0A9F8322000F089F801E0012072
:101C900010BD0020FCE770B50446FFF745FFD020DB
:101CA000FFF714FFFFF788FF2046FFF70FFFFFF74E
:101CB00083FFFFF739FFD120FFF708FFFFF77CFF15
:101CC0000020FFF7CDFE0546FFF752FF284670BD06
:101CD0002DE9F04106460F4614461D46FFF724FF46
:101CE000002141EA4601C8B2FFF7F0FEFFF764FFAA
:101CF00020B1FFF73DFF0120BDE8F0813846FFF736
:101D0000E5FEFFF759FFFFF70FFF012101EB460149
:101D1000C8B2FFF7DBFEFFF74FFF0DE0012C04D147
:101D20000020FFF79DFE287003E00120FFF798FEDA
:101D30002870601EC4B26D1C002CEFD1FFF718FF95
:101D40000020D9E710B50446E006010E1C2000F083
:101D500043F810BD10B50446E006010E1B2000F04C
:101D60003BF810BD70B504460025BC2C01DB0125F5
:101D700010E0622C01DB02250CE02A2C01DB03259C
:101D800008E0142C01DB042504E00A2C01DB052506
:101D900000E0062529461A2000F01EF870BD70B537
:101DA0000446B4F57A7F01DD4FF47A74042C00DA2E
:101DB00004244FF47A7090FBF4F0401EC5B229461B
:101DC000192000F009F80546264604EBD671C1F348
:101DD0004F00FFF7C7FF70BD70B505460C46FFF713
:101DE000A3FED020FFF772FEFFF7E6FE18B1FFF763
:101DF000BFFE012070BD2846FFF768FEFFF7DCFE3E
:101E00002046FFF763FEFFF7D7FE18B1FFF7B0FEDD
:101E10000120EFE7FFF7ACFE0020EBE72DE9F041F2
:101E200005460E4617469846FFF77EFE002141EA1A
:101E30004501C8B2FFF74AFEFFF7BEFE20B1FFF72B
:101E400097FE0120BDE8F0813046FFF73FFEFFF727
:101E5000B3FE00240CE018F80400FFF737FEFFF78C
:101E6000ABFE18B1FFF784FE0120EBE7601CC4B2A3
:101E7000BC42F0DBFFF77CFE0020E3E700BFFEE79B
:101E80007047000070B5002100230F22C47804B30E
:101E9000154C246804F4E064C4F5E064210AC1F13F
:101EA0000403CA40447804FA03F1847814402143BF
:101EB00009010E4C0678A155047804F01F05012491
:101EC000AC4005786D11AD0005F1E025C5F8004185
:101ED00009E0047804F01F050124AC40044D0678A5
:101EE000761145F8264070BD0CED00E000E400E0FE
:101EF00080E100E002490143024A1160704700009E
:101F00000000FA050CED00E07047000029B1064A18
:101F1000D2690243044BDA6104E0034AD269824386
:101F2000014BDA61704700000010024029B1064AF7
:101F300092690243044B9A6104E0034A9269824326
:101F4000014B9A61704700000010024030B500213B
:101F50000022002400232D4D6D6805F00C0121B1F5
:101F6000042905D0082923D105E0294D056022E088
:101F7000274D05601FE0254D6D6805F47012234D57
:101F80006D6805F48034022505EB92421CB9214DA1
:101F9000554305600BE01D4D6D6805F400351DB11E
:101FA0001C4D5543056002E0194D5543056002E0A4
:101FB000174D056000BF00BF144D6D6805F0F001BE
:101FC0000909154D6B5C0568DD4045600F4D6D6876
:101FD00005F4E061090A104D6B5C4568DD408560E1
:101FE0000A4D6D6805F46051C90A0B4D6B5C45687C
:101FF000DD40C560054D6D6805F44041890B074D16
:102000006B5CC568B5FBF3F5056130BD001002409F
:1020100000127A0000093D00A9000020B90000204C
:10202000704710B500F002F810BD00000CB500209C
:10203000019000903348006840F4803031490860D6
:1020400000BF3048006800F4003000900198401C48
:102050000190009818B90198B0F5A06FF1D1294806
:10206000006800F4003010B10120009001E0002071
:1020700000900098012843D12348006840F01000E8
:10208000214908600846006820F0030008600846FF
:10209000006840F0020008601A484068194948602A
:1020A0000846406848600846406840F480604860E0
:1020B0000846406820F47C1048600846406840F4B8
:1020C000E81048600846006840F08070086000BF73
:1020D0000C48006800F000700028F9D009484068FA
:1020E00020F00300074948600846406840F00200BD
:1020F000486000BF0348406800F00C000828F9D190
:102100000CBD00000010024000200240042808D14D
:102110004FF0E021096941F004014FF0E022116124
:1021200007E04FF0E021096921F004014FF0E022BF
:10213000116170477047000010B51348006840F007
:1021400001001149086008464068104908400E49DE
:102150004860084600680E4908400B490860084678
:10216000006820F4802008600846406820F4FE00E3
:1021700048604FF41F008860FFF753FF4FF0006086
:102180000449086010BD0000001002400000FFF884
:10219000FFFFF6FE08ED00E0174AD26942F00102A7
:1021A000154BDA611A46926942F004029A61134AA9
:1021B000126842F04402114B1A60DA0490851185CE
:1021C000128B42F00102DB041A831A46128B42F48E
:1021D00080721A831A46128C1A841A46128C1A8438
:1021E0001A46128942F003021A811A46128842F0F6
:1021F00001021A80704700000010024000080140F0
:102200004FF080418884704730B589B005460C4650
:1022100001210220FFF77AFE01211120FFF786FE3F
:1022200001212E48FFF7C2FA4FF47070ADF820007C
:1022300018208DF8230003208DF8220008A92848D3
:10224000FFF728FAADF81850ADF814400020ADF8AB
:102250001A00ADF8160005A9224800F037FB6020EF
:10226000ADF804000120ADF806000020ADF80C0028
:1022700001A91C4800F0C6F901A91A4800F018FA93
:1022800001A9184800F074FA01A9164800F0CAFA2A
:102290000821144800F002FA0821124800F05AFA06
:1022A0000821104800F0B4FA08210E4800F0F8FAAE
:1022B00001210C4800F07FF900210A4800F0FDFAE6
:1022C0000021084800F0FBFA0021064800F0F9FA66
:1022D0000021044800F0F7FA09B030BD000C1A00E4
:1022E00000100140000400401D4AD26942F004027F
:1022F0001B4BDA611A46926942F004029A61194A4C
:10230000126842F08842174B1A60174A1080121F59
:102310001180154A143A128842F00102124B143B04
:102320001A801A46128842F480721A800E4A0C3AB9
:1023300012880D4B0C3B1A801A4612881A800A4AE2
:10234000243A128842F00302074B243B1A80064AC3
:102350002C3A128842F00102034B2C3B1A80704742
:1023600000100240000C01402C0800400149088088
:10237000704700002408004070B5002500240121AA
:102380002A4800F024F900284ED00121274800F007
:102390000FF92748008800F40040002844D0244862
:1023A0000088C0F30D0500BF05E02248005D22490A
:1023B0000855601C84B2AC42F7DB00201C49088041
:1023C0001D4801F093F81D490978401A1C4908700E
:1023D000194801F08EF81B490988401A1A490880EB
:1023E000154803F011FD19490978401A1849087079
:1023F000114803F00CFD17490988401A1649088056
:102400000D4801F073F80D4908700B4801F071F8A0
:102410000C490880084803F0F7FC0C49087006488E
:1024200003F0F5FC0B49088070BD0000000C004073
:102430007000002024010020C00000205400002073
:1024400056000020580000205C00002055000020AD
:10245000570000205A0000205E0000207FB505468E
:102460000C4601210820FFF751FDADF80850ADF8EA
:1024700004400020ADF80A00ADF8060001A90E489E
:1024800000F024FA012211460C4800F0B1F8322085
:102490008DF8000000208DF8010004208DF8020066
:1024A00001208DF803006846FFF7ECFC012103488A
:1024B00000F081F87FBD000000100040000C0040DB
:1024C00008B501211A4800F082F880B301211848AC
:1024D00000F06EF84FF08040808C00B2154909681A
:1024E00008801548008800B2144909680880002057
:1024F000FFF786FE0020FFF739FF002000900D480F
:102500000068B0F900200E48B0F900300D490020F5
:1025100000F01CFC0120009008480068B0F9002081
:102520000948B0F900300949002000F00FFC08BD4F
:102530000010004018000020240800401C0000206B
:102540002200002026000020240000202800002077
:102550007FB505460C4601211020FFF7D7FCADF8EA
:102560000850ADF804400020ADF80A00ADF80600B0
:1025700001A90E4800F0AAF9012211460B4800F00B
:1025800037F836208DF8000000208DF80100032078
:102590008DF8020001208DF803006846FFF772FCF9
:1025A0000121024800F007F87FBD00000010004044
:1025B000CA430282704721B1028842F001020280C0
:1025C00004E002884FF6FE731A400280704730B56F
:1025D0000246002000230024158A05EA010395899C
:1025E00005EA010413B10CB1012000E0002030BD68
:1025F0001AB183890B43838102E083898B438381F2
:102600007047000070B5002400220023058C4FF6AF
:10261000FE7635400584028C8388048B4FF68F75D7
:102620002C40B51E2C400D882C43751E2A400D8968
:102630002A434D882A43144DA8420BD0134DA8427B
:1026400008D0134DA84205D0124DA84202D0124D19
:10265000A84213D14FF6F7752A404D892A434FF609
:10266000FB752A408D882A434FF6FF652B404FF6B5
:10267000FF552B408D892B43CD892B4383800483C9
:10268000CD888586028470BD002C01400034014055
:102690000040014000440140004801400A4600213A
:1026A000018B4FF6F7731940114301837047000007
:1026B00070B5002400220023058C4FF6EF763540DC
:1026C0000584028C8388048B48F6FF752C404FF6F6
:1026D000FF452C400D884FF6FF7606EA05252C4372
:1026E0004FF6DF752A400D8906EA05152A434D8805
:1026F00006EA05152A43154DA84202D0144DA842FA
:102700001DD14FF67F752A404D894FF6FF7606EAB8
:1027100005152A434FF6BF752A408D8806EA051530
:102720002A434FF6FF352B404FF2FF752B408D8922
:1027300006EA85052B43CD8906EA85052B43838070
:102740000483CD880587028470BD0000002C014001
:10275000003401400A460021018B4FF2FF731940FB
:102760004FF6FF7303EA0223194301837047000009
:1027700070B5002400220023058C4FF6FF6635401B
:102780000584028C8388848B4FF68F752C404FF61E
:10279000FC752C400D882C434FF6FF552A400D89BF
:1027A0004FF6FF7606EA05252A434D8806EA0525F9
:1027B0002A43154DA84202D0144DA8421DD14FF214
:1027C000FF752A404D894FF6FF7606EA05252A4314
:1027D0004FF6FF352A408D8806EA05252A434EF636
:1027E000FF752B404DF6FF752B408D8906EA0515C8
:1027F0002B43CD8906EA05152B4383808483CD883E
:102800008587028470BD0000002C01400034014027
:102810000A460021818B4FF6F773194011438183DB
:102820007047000070B5002200230024058C4EF68E
:10283000FF7635400584038C8488828B48F6FF75CB
:102840002A404FF6FF452A400D884FF6FF7606EAEC
:1028500005252A434DF6FF752B400D8906EA0535FF
:102860002B434D8806EA05352B430B4DA84202D079
:102870000A4DA84208D14BF6FF752C408D894FF6C2
:10288000FF7606EA85152C4384808283CD88A0F8E4
:102890004050038470BD0000002C01400034014012
:1028A0000A460021818B4FF2FF7319404FF6FF73E8
:1028B00003EA0223194381837047818670470187A9
:1028C000704781877047A0F8401070470022028847
:1028D0001D4B98420ED01D4B98420BD0B0F1804F4B
:1028E00008D01B4B984205D01A4B984202D01A4B85
:1028F000984204D14FF68F731A404B881A43174BF6
:10290000984207D0164B984204D04FF6FF431A4026
:10291000CB881A4302808B8883850B8803850A4BFA
:1029200098420BD0094B984208D00E4B984205D0E4
:102930000D4B984202D00D4B984201D10B7A038681
:102940000123838270470000002C014000340140C5
:102950000004004000080040000C0040001000404F
:102960000014004000400140004401400048014084
:1029700010B540F225511D4800F04AF810B31B482D
:1029800000F002F9C4B21A48008800F40040C8B947
:102990001748008800F4804060B10A2C03D0002062
:1029A0001349088020E01248008840F40040104994
:1029B000088019E00D2C06D10D48008840F48040B5
:1029C0000B49088010E00A480088C0F30D0009494F
:1029D0000C5407480088401C0549088008460088B8
:1029E000C72801DD0020088010BD0000003801402C
:1029F000700000202401002021B1828942F400529D
:102A0000828104E082894DF6FF731A40828170470B
:102A100070B50246002400230025002040F66A1607
:102A2000B14200D100BFC1F3421501F01F030126DE
:102A300006FA03F3012D02D19689334006E0022DF8
:102A400002D1168A334001E0968A33400C120126E7
:102A500006FA04F41688344013B10CB1012000E0EA
:102A6000002070BDF0B5034600240026002500209C
:102A700040F66A17B94200D100BF1846C1F34214AC
:102A800001F01F06012707FA06F5012C01D10C30D1
:102A900004E0022C01D1103000E014301AB10768B4
:102AA0002F43076002E00768AF430760F0BD0000F6
:102AB0002DE9F04786B005460E460024A24600BF29
:102AC000A1460027B08900B100BF2F462C8A4CF6E2
:102AD000FF700440F08804432C82AC894EF6F3105A
:102AE0000440B08831890843718908430443AC81AC
:102AF000AC8A4FF6FF400440B0890443AC8201A881
:102B0000FFF724FA1F48874202D1DDF810A001E048
:102B1000DDF80CA0A88900F4004040B10AEBCA001F
:102B200000EB0A1031684900B0FBF1F807E00AEB4E
:102B3000CA0000EB0A1031688900B0FBF1F864208C
:102B4000B8FBF0F004012009642101FB1089A88979
:102B500000F4004040B1322000EBC900B0FBF1F0BE
:102B600000F00700044308E0322000EB0910642164
:102B7000B0FBF1F000F00F0004432C8106B0BDE87B
:102B8000F08700000038014001468888C0F3080043
:102B9000704700BFFEE7490050EAC12018BF04207B
:102BA0004A0D18BF40F0010040F2FF72B2EB515FD6
:102BB00008BF40F00200012808BF052070472DE93A
:102BC000F0414F1E00EBC7010446D1E90001154654
:102BD0001E4637F006020DD02A46334603F0D6FDD6
:102BE0007F1E04EBC703D3E9002303F0B3FB37F0E8
:102BF0000602F1D1022F25D0042F13D0062F18BFC3
:102C0000BDE8F0812A46334603F0C0FDD4E90A232B
:102C100003F0A0FB2A46334603F0B8FDD4E90823AD
:102C200003F098FB2A46334603F0B0FDD4E90623AF
:102C300003F090FB2A46334603F0A8FDD4E90423B1
:102C400003F088FB2A46334603F0A0FDD4E90223B3
:102C500003F080FB2A46334603F098FDD4E90023B5
:102C6000BDE8F04103F076BB012204F03CBC03F068
:102C700071BB002213461046114603F01BBC000036
:102C8000024A0020110704F02EBC000001FDFFFFE6
:102C900030380A2801D201207047002070470146D1
:102CA00000BF70472DE9FE4F06460F4600256846D7
:102CB00001F0B4FA002442E056F8240057F824103A
:102CC000A0EB010ABAF1000F01DB514601E0CAF1A5
:102CD0000001084604F000FA83464FF08F4104F0EB
:102CE000C9F880465DF82400002104F085F916D06B
:102CF0005DF82410404604F0BDF882464FF07E5146
:102D000004F048FB814629F0004A0F48416A5046CA
:102D100004F00EFB12D20120A04005430EE00A4849
:102D2000C169404604F004FA05D30748016A4046E9
:102D300004F0FEFA02D20120A0400543641C032CDB
:102D4000BADB2846BDE8FE8F9C7500082DE9F843E4
:102D500081460C4615461E46089FB5423CDDA81B21
:102D6000052801DABDE8F883A81B592148436421EE
:102D700090FBF1F00FFA80F82088A0EB080000B279
:102D80002080A7B93348B0F90000009032480068AD
:102D9000B0F900303148B0F9002007F1310130A01E
:102DA000FDF76CFAB4F9000003F082F850E03A48FD
:102DB000B0F90000009039480068B0F90030384898
:102DC000B0F9002007F1310125A0FDF757FAB4F959
:102DD000000003F091F83BE0B54239DA701B05289A
:102DE00000DABFE7701B59214843642190FBF1F0E2
:102DF0000FFA80F82088404400B22080A7B9154817
:102E0000B0F90000009014480068B0F90030134891
:102E1000B0F9002007F1310122A0FDF72FFAB4F933
:102E2000000003F045F813E01B48B0F900000090E3
:102E30001A480068B0F900301948B0F9002007F1CD
:102E4000310118A0FDF71AFAB4F9000003F054F8A4
:102E500000BF87E722000020180000202600002085
:102E6000256320746F6F20666173742173757266B9
:102E70006163655F73706565643A25642C73706582
:102E800065643A25642C7461726765745F7370655C
:102E900065643A25640A0000240000201C0000201C
:102EA00028000020256320746F6F20736C6F7721DA
:102EB000737572666163655F73706565643A2564F6
:102EC0002C73706565643A25642C7461726765744F
:102ED0005F73706565643A25640A00002DE9F04D62
:102EE0008D4F21F0004A86B005460C46BA452ADBD4
:102EF000AAEB070028430AD08848824501DC1AD192
:102F0000CDB106B02846BDE8F04DFFF7ADBE844A0E
:102F1000844B284603F03AFC07460E46824A834B10
:102F20002846214603F032FC06B03A463346BDE857
:102F3000F04D03F00FBA0120FDF788FB06B0BDE8A5
:102F4000F04DFFF796BE7A48824542DABAF1795FD2
:102F50000BDA2846FFF71FFE042808BFFFF790FE94
:102F6000284606B02146BDE8F08D2A460B4610469D
:102F700003F00CFC834602466E480E460B460621C3
:102F80007844FFF71CFE5A46334603F0FFFB8046A9
:102F900069488A465A46334604217844FFF70FFEB3
:102FA0005A46334603F0F2FB00223B4603F0D2F9C7
:102FB00002460B464046514603F07CFA2A46234619
:102FC00003F0E4FB06B02A462346BDE8F04D03F0CB
:102FD000C1B9284624F0004100223D463B4603F09B
:102FE000D3FC4FF0FF3204F07EFA06460246534807
:102FF0000F460B4606217844FFF7E1FD32463B467B
:1030000003F0C4FBCDE900014D4832463B460421A4
:103010007844FFF7D4FD32463B4603F0B7FB00226D
:103020002B4603F097F9834602913046394602F069
:1030300087FF804643480D46504517DCDDE9000117
:103040005A46029B03F036FA42462B4603F09EFB9B
:1030500042462B4603F07EF9012204F044FA304A3E
:10306000304B03F083FD304A304B4CE04FF0000A08
:1030700052460B46404603F06DF9CDE90310524627
:103080002B461046194603F081FB32463B4603F0BF
:103090007BFCDDE9033203F00DFA06460F46DDE95D
:1030A00000015A46029B03F005FA83460091012273
:1030B0003046394604F017FA194A1A4B03F064FCFB
:1030C00006460F4601224046294604F00CFA5A46AD
:1030D000009B03F05BFB32463B4603F047FD064690
:1030E0000F4601225046294604F0FDF90E4DDFF847
:1030F00058802A46434603F047FC32463B4603F0DD
:1031000043FC2A46434603F03FFC002CD8BF81F025
:10311000004106B0BDE8F08D0000F03F0000F07FF8
:10312000075C143326A6913C182D4454FB21F93F2B
:103130000000E03F4C52000062520000D6510000F7
:10314000EC5100003333EF3FFB21E93F2DE9F84F0D
:1031500004460D4621F0004000917349814211DC84
:103160007249884201DC06D12CB120462946BDE8CF
:10317000F84FFFF779BD6E48002DCCBF6D496E4901
:10318000BDE8F88F6D49814211DD6D498142D8BF9C
:103190004FF0FF366DDD20462946FFF7FCFC042882
:1031A00008BFFFF76DFD20462946BDE8F88F654949
:1031B000654F25F00045814233DD6449814219DDC8
:1031C000002632464FF080432046294603F0C2F8DD
:1031D00080468A4601222046294604F084F90022CE
:1031E0003B4603F0C3FC4246534603F063F90446F2
:1031F0000D463EE001260022BA463B4620462946BF
:1032000003F0A8F880460F46002253462046294680
:1032100003F0ACFC42463B4603F04CF904460D4635
:1032200027E04B4981421BDDDFF828A1022600225E
:1032300053462046294603F0A9FA00223B4603F0F4
:1032400089F880460F46002253462046294603F05F
:103250008DFC42463B4603F02DF904460D4608E03E
:10326000032622462B4600203B4903F023F904465F
:103270000D4622462B461046194603F087FA8B4628
:10328000824602460B4603F081FA0746024633485F
:1032900088460B4606217844FFF791FC52465B4670
:1032A00003F074FA82462E488B463A46434605217F
:1032B0007844FFF784FC3A46434603F067FA024637
:1032C0000B46002E504659460CDA03F043F82246CE
:1032D0002B4603F05BFA01B022462B46BDE8F04FC7
:1032E00003F052BB03F036F822462B4603F04EFAA9
:1032F0001C4A7A4402EBC603D3E9002303F036FCF0
:1033000022462B4603F032FC174A7A4402EBC603EE
:10331000D3E9002303F038FB009A002AB8BF81F0FC
:103320000041BDE8F88F0000000010440000F07F6D
:10333000182D4454FB21F93FFB21F9BF0000DC3F6D
:103340000000203E0000F33F0000F03F0000E63F99
:10335000008003400000F83F0000F0BFEE4F000087
:10336000AC4F00004A4F0000124F00002DE9F04D15
:103370009446CCF1000423F000464CEA0404524F7A
:1033800046EAD4749A46884621F00042BC4206D8E8
:10339000454240EA050442EAD474BC4204D9BDE87F
:1033A000F04D6246FFF763BCAAF14055A5F17F6579
:1033B00055EA0C040BD0022404EAAA74434DDFF84A
:1033C00010E144EAD87452EA000B04D00CE0BDE8E6
:1033D000F04DFFF7BBBE002C14BF012CBDE8F08DF3
:1033E000022C30D0032C32D056EA0C0B0AD0BE424D
:1033F00020D1BA4209D126F0804622F080423346DD
:10340000114617E000291ADB25E0DFF8C8B0FB44BD
:10341000002C04BFDBE90001BDE8F08D012C02BFE8
:10342000DBE9000181F00041BDE8F08D022C0AD0FB
:10343000032C0CD0BA4212D1B8F1000F0BDA23489A
:103440002549BDE8F08D28462449BDE8F08D284681
:103450007146BDE8F08D1D482149BDE8F08D921BF5
:1034600012153C2AC4BF19481D490EDCBAF1000FE1
:10347000BEBF12F13C0F0020014606DB624603F09E
:1034800019F821F00041FFF761FE002C08BFBDE8EC
:10349000F08D012C04BF81F00041BDE8F08D114A90
:1034A000114B022C07D003F061FB2A46BDE8F04D1A
:1034B0000A4B03F05BBB03F059FB2A46BDE8F04D15
:1034C000064B03F061BA00000000F07F182D445451
:1034D000FB2109C0A64E0000FB21F9BFFB210940DA
:1034E000FB21F93F075C143326A6A13C0146087A6C
:1034F000704701468B7A487A03EB002082B2D0B243
:10350000704700002DE9F0410446E07800F0C00665
:10351000E07800F03F05607800F0010098B1EF100E
:103520002846E91705EB5171C910A5EBC101491CEB
:1035300001F0FF080B48006820B10A4841460268C4
:103540003846904700BF607800F0080030B1054869
:10355000406818B1B011034A516888470020BDE89F
:10356000F0810000EC01002010B56FF00400FEF7C0
:10357000CDFD0A4800680A49B0FBF1F0094908701E
:103580000846007800EB4001C1EBC0104FF6FF7118
:1035900001EAC0000449088010BD000004000020BA
:1035A00000127A00680000206A0000200146114ADB
:1035B00012884A434FF0E0235A6100229A611A466A
:1035C000126942F001021A6100BF4FF0E022106957
:1035D00000F001021AB100F48032002AF5D04FF059
:1035E000E022126922F001024FF0E0231A6100226A
:1035F0009A6170476A0000200146114A12784A43D6
:103600004FF0E0235A6100229A611A46126942F093
:1036100001021A6100BF4FF0E022106900F00102C0
:103620001AB100F48032002AF5D04FF0E02212697E
:1036300022F001024FF0E0231A6100229A617047E4
:103640006800002038B5044664B120208DF80000E1
:1036500028208DF8010030208DF8020038208DF8E8
:10366000030004E0A32204216846FCF767FF6A46D2
:10367000042140F69E2002F03DFB01F027FF38BDFB
:103680003EB5044602208DF80000CA208DF80100E6
:10369000E3208DF8020009208DF803006A4604211A
:1036A000682002F027FBA3208DF8000004F0400002
:1036B00048B1C0208DF80100C8208DF80200C2205A
:1036C0008DF8030006E0A3208DF801008DF80200BC
:1036D0008DF8030004F4C07048B1C4208DF80400D4
:1036E000CC208DF80500C6208DF8060006E0A3204A
:1036F0008DF804008DF805008DF80600A3208DF8E4
:1037000007008DF808008DF809006A460A2140F686
:10371000A72002F0EFFA04F0030018B120208DF882
:10372000000002E0D8208DF800006A46012140F632
:10373000B62002F0DFFA04F0200018B1012000F0FA
:10374000ADF802E0002000F0A9F804F4C07008B35E
:1037500004F4807060B1B2208DF800008B208DF8E9
:103760000100B6208DF802009B208DF803000BE0CD
:10377000B0208DF8000080208DF80100B4208DF875
:10378000020090208DF803006A46042140F6A22032
:1037900002F0B0FA04F0010020B3F8208DF8000028
:1037A0006A4601214FF40B6002F0A4FAFA210720C7
:1037B00000F02CFC072000F0F3FB012000F013FCCC
:1037C000642000F0F3FC4FF4FA7000F002FDC82111
:1037D000304800F0A3FB282000F0BCFB0A2000F0DA
:1037E000CCFB08E0D8208DF800006A4601214FF498
:1037F0000B6002F07FFA04F0020018B1D9208DF8B6
:10380000000002E0D8208DF800006A46012140F255
:103810003D7002F06FFA04F0040018B1012000F0CE
:1038200069F802E0002000F065F804F0100018B11B
:103830000120FFF707FF02E00020FFF703FF44F03D
:1038400008001549488101F041FE002012498873A3
:1038500004F0400018B10846807B801D887304F492
:10386000C07020B10C48807B801D0B49887304F028
:10387000140020B10848807B10300749887304F099
:10388000030020B10448807B001D03498873002099
:103890003EBD000009E3CA02EC0100203EB504462B
:1038A0006CB10EA1D1E900208968CDE90020029118
:1038B0006A4609214FF4976002F01CFA3EBD0AA245
:1038C000D2E900109268CDE9010200916A4609210F
:1038D0004FF4976002F00EFAF0E70000B8AAB38D3B
:1038E000B4980D355D000000B8AAAAAAB088C3C577
:1038F000C700000038B5044664B1C0208DF8000050
:10390000C2208DF80100C4208DF80200C6208DF879
:10391000030004E08B2204216846FCF70FFE6A4690
:10392000042140F6982002F0E5F901F0CFFD38BD02
:1039300010B5C8234FF48062024940F6F63001F01A
:1039400059FC10BDC47500082DE9F04F8DB0074635
:10395000884615469946DDE9166B00240020308024
:103960006B49887B5A4605A901F010FD18B1601E0D
:103970000DB0BDE8F08F6648807A00F01400002892
:1039800067D09DF8140000069DF8151040EA01402C
:103990009DF8161040EA01209DF817100843286092
:1039A0009DF8180000069DF8191040EA01409DF8A6
:1039B0001A1040EA01209DF81B10084368609DF82A
:1039C0001C0000069DF81D1040EA01409DF81E10E5
:1039D00040EA01209DF81F100843A8609DF82000D0
:1039E00000069DF8211040EA01409DF8221040EAAF
:1039F00001209DF823100843E86004F11000C4B2D0
:103A0000286800140190686800140290A8680014E7
:103A10000390E8680014049001984043029901FB68
:103A20000100039901FB0100049901FB010ABAF1AD
:103A3000706F02DBBAF1885F05DD01F047FD002001
:103A40003080401E94E7B6F9000040F4807030806A
:103A500000BF2F48807A00F0400020B305A9601C09
:103A6000085C095D40EA012000B2A8F8000005A941
:103A7000E01C095C05AAA01C105C41EA002000B211
:103A8000A8F8020005A9601D095C201D105C41EA30
:103A9000002000B2A8F80400A01DC4B2B6F90000CE
:103AA00040F0080030801A48408900F4C07008B324
:103AB00005A9601C085C095D40EA012000B238805D
:103AC00005A9E01C095C05AAA01C105C41EA0020C5
:103AD00000B2788005A9601D095C201D105C41EAD8
:103AE000002000B2B880A01DC4B2B6F9000040F0BA
:103AF000700030800648807A00F0030018B105A9F4
:103B00000819FFF7FFFC484601F006F800202FE7F0
:103B1000EC01002070B588B0064601A801F0BEF99E
:103B2000BDF804000021C90341EA5045C4034448DC
:103B3000007A00F0030056F8200005904048007A13
:103B400000F0040010B10598404205903C48007A0E
:103B5000C0F3C10056F8200006903948007A00F002
:103B6000200010B10698404206903548007AC0F314
:103B7000811056F8200007903148008900F48070C9
:103B800010B10798404207900598C117A0FB042385
:103B900001FB043100FB0510810041EA92700590A1
:103BA0000698C117A0FB042301FB043100FB05109C
:103BB000810041EA927006900798C117A0FB042388
:103BC00001FB043100FB0510810041EA927007906F
:103BD0000598000E8DF808000598000C8DF8090076
:103BE0000598000A8DF80A000598C0B28DF80B0000
:103BF0000698000E8DF80C000698000C8DF80D004C
:103C00000698000A8DF80E000698C0B28DF80F00D5
:103C10000798000E8DF810000798000C8DF8110021
:103C20000798000A8DF812000798C0B28DF81300AB
:103C300002AA0C214FF4257002F05CF808B070BDA8
:103C4000EC01002030B585B0044616A207CA02ABCD
:103C500007C3C82C03DD4FF0FF3005B030BDC820CE
:103C600090FBF4F0401E85B2280A8DF80000E8B2FF
:103C70008DF801006A46022140F2162002F03AF85F
:103C800010B14FF0FF30E8E702AA0C2140F6C12046
:103C900002F030F810B14FF0FF30DEE704488481C5
:103CA0000020DAE7FEF2ABC4AAF1DFDFBBAFDFDF53
:103CB000EC0100201FB504464848007A00F00300DC
:103CC00054F8200001904548007A00F0040010B13B
:103CD0000198404201904148007AC0F3C10054F875
:103CE000200002903D48007A00F0200010B10298B8
:103CF000404202903948007AC0F3811054F8200005
:103D000003903648008900F4807010B10398404257
:103D100003903349019880FB0101800F40EA810044
:103D200001902F49029880FB0110820042EA9170B5
:103D300002902B49039880FB0110820042EA9170A7
:103D400003900198000E8DF800000198000C8DF88A
:103D500001000198000A8DF802000198C0B28DF8A8
:103D600003006A4604214FF4747001F0C3FF18B1D8
:103D70004FF0FF3004B010BD0298000E8DF8000027
:103D80000298000C8DF801000298000A8DF80200DC
:103D90000298C0B28DF803006A4604214FF4757092
:103DA00001F0A8FF10B14FF0FF30E3E70398000ED9
:103DB0008DF800000398000C8DF801000398000AAC
:103DC0008DF802000398C0B28DF803006A46042102
:103DD0004FF4767001F08EFFCCE70000EC0100207C
:103DE00009E3CA0210B586B0044647A000680390F4
:103DF00046A00068029046A00068019045A00068B7
:103E0000009004F0030003A9085C8DF8140003A8D7
:103E1000C4F3C101405C8DF8150003A8C4F38111FF
:103E2000405C8DF8160004F0030002A9085C8DF8D0
:103E3000100002A8C4F3C101405C8DF8110002A873
:103E4000C4F38111405C8DF8120005AA032140F2F1
:103E5000264001F04FFF18B14FF0FF3006B010BD03
:103E600004AA032140F22A4001F044FF10B14FF0B0
:103E7000FF30F3E7019805900098049004F00400E7
:103E800058B19DF8140040F001008DF814009DF821
:103E9000100040F001008DF8100004F0200058B12F
:103EA0009DF8150040F001008DF815009DF81100F7
:103EB00040F001008DF8110004F4807058B19DF8B5
:103EC000160040F001008DF816009DF8120040F039
:103ED00001008DF8120005AA03214FF4886001F05B
:103EE00009FF10B14FF0FF30B8E704AA032140F2F8
:103EF000314001F0FFFE10B14FF0FF30AEE7064851
:103F000004810020AAE700004CCD6C000CC92C00F5
:103F10003656760026466600EC010020F8B50546C8
:103F20000E464FF47A7095FBF0F000FB06F4200E7D
:103F30008DF80000200C8DF80100200A8DF8020099
:103F4000E0B28DF803006A4604214FF4AE7001F030
:103F5000D1FEF8BD38B50446052094FBF0F084B2DC
:103F600020128DF80000E0B28DF801006A460221AF
:103F70004FF4AD7001F0BEFE38BD38B504460520E3
:103F800094FBF0F084B220128DF80000E0B28DF8BE
:103F900001006A4602214FF4AC7001F0ABFE38BD5F
:103FA00038B504460020009004F0010020B19DF8CF
:103FB000000040F03000009004F0020020B19DF8B5
:103FC000000040F00C00009004F0040020B19DF8C7
:103FD000000040F0030000906A4601214FF4A470F5
:103FE00001F088FE38BD38B50446012C01DA012401
:103FF00002E0042C00DD0424601EC0B200906A467A
:10400000012140F24F1001F075FE38BD2DE9FC474B
:1040100006460F4606F0070010B1B7F5C86F03DD7E
:104020004FF0FF30BDE8FC87384603F06DF881465D
:10403000594902F01FFF8046684600F009FF9DF8CD
:104040000000022806D0042816D0082826D0102800
:1040500048D135E04FF08D41404603F09DF8814650
:1040600003F01AF884B24D49404603F095F88146B2
:1040700003F012F885B238E04FF08C41404603F06F
:104080008BF8814603F008F884B24549404603F0B6
:1040900083F8814603F000F885B226E04FF08B41AB
:1040A000404603F079F8814602F0F6FF84B23D49BC
:1040B000404603F071F8814602F0EEFF85B214E04D
:1040C0004FF08A41404603F067F8814602F0E4FF72
:1040D00084B23549404603F05FF8814602F0DCFFC8
:1040E00085B202E04FF0FF309CE700BF20128DF850
:1040F0000400E0B28DF8050028128DF80600E8B241
:104100008DF8070006F00100A0B101AA02214FF4CA
:10411000EA7001F0EFFD10B14FF0FF3082E70DF1D2
:10412000060202214FF4927001F0E4FD10B14FF04D
:10413000FF3077E706F00200A0B101AA02214FF498
:10414000EC7001F0D7FD10B14FF0FF306AE70DF1D0
:10415000060202214FF4947001F0CCFD10B14FF033
:10416000FF305FE706F00400A0B101AA02214FF47E
:10417000EE7001F0BFFD10B14FF0FF3052E70DF1CE
:10418000060202214FF4967001F0B4FD10B14FF019
:10419000FF3047E7002045E7000048430000404665
:1041A0000000C045000040450000C04438B504464A
:1041B000052094FBF0F085B228128DF80000E8B2DB
:1041C0008DF801006A4602214FF4EF7001F092FD74
:1041D00038BD38B50446052094FBF0F085B22812AE
:1041E0008DF80000E8B28DF801006A4602214FF414
:1041F000ED7001F07FFD38BD00BF054A128802F066
:104200004002002AF9D0C2B2014B1B1D1A80704730
:104210000038014001464A78901170477CB5054648
:1042200028494968087801AB04220D21FDF750FDAB
:1042300008B107207CBD9DF80700C0F301109DF870
:10424000041001F0E00140EAE1008DF800009DF863
:104250000700C0F381009DF8051001F0E00140EA7D
:10426000E1008DF801009DF8070000F003009DF8C3
:10427000061001F0E00140EAE1008DF802000024A0
:104280001CE01DF8040018B9002045F8240013E0D4
:104290000D4845F8240006E055F824000B4902F0CB
:1042A0007BFF45F824001DF80400401EC0B20DF845
:1042B00004000028F0D100BF601CC4B2032CE0DB76
:1042C0000020B7E7740000207B14AE3E1D5A843FE7
:1042D0002DE9F04F87B005460C46914601208DF838
:1042E000100000208DF81100FE4A1268917CFD4AF2
:1042F0005268107804AB0222FDF790FD20B14FF018
:10430000FF3007B0BDE8F08FC820FFF74FF900205D
:104310008DF81000F34A1268D17BF24A5268107887
:1043200004AB0122FDF77AFD10B14FF0FF30E8E752
:10433000EC4A12685179EB4A5268107804AB0122BA
:10434000FDF76CFD10B14FF0FF30DAE7E54A126877
:10435000917CE44A5268107804AB0122FDF75EFDBF
:1043600010B14FF0FF30CCE7DE4A1268D17DDD4A54
:104370005268107804AB0122FDF750FD10B14FF0E8
:10438000FF30BEE7D74A12681179D64A52681078D2
:1043900004AB0122FDF742FD10B14FF0FF30B0E752
:1043A0000C208DF81000CF4A12681179CD4A52685E
:1043B000107804AB0122FDF731FD10B14FF0FF3052
:1043C0009FE70F20FFF7F2F8C648806A407A8DF821
:1043D0001000C44A12689178C24A5268107804AB3F
:1043E0000122FDF71BFD10B14FF0FF3089E7BD48FA
:1043F000806A007A8DF81000BA4A12685178B94A7A
:104400005268107804AB0122FDF708FD10B14FF09F
:10441000FF3076E7B9F1000F07D0B248806A807AA2
:1044200040F0E0008DF8100004E0AE48806A807A29
:104430008DF81000AB4A12689179AA4A5268107838
:1044400004AB0122FDF7EAFC10B14FF0FF3058E752
:10445000B9F1000F07D0A348806AC07A40F0E000AD
:104460008DF8100003E0A048C07A8DF810009D4A36
:104470001268D1799B4A5268107804AB0122FDF78B
:10448000CDFC10B14FF0FF303BE7B9F1000F02D087
:10449000C820FFF78BF840208DF81000914A126871
:1044A0001179904A5268107804AB0122FDF7B6FCEE
:1044B00010B14FF0FF3024E778208DF81000894AC2
:1044C00012685179874A5268107804AB0122FDF7CF
:1044D000A5FC10B14FF0FF3013E783498889FFF73F
:1044E00065F800208DF810007E4A126851797D4AE7
:1044F0005268107804AB0122FDF790FC10B14FF028
:10450000FF30FEE6774A1268917A764A5268107850
:1045100004AB0222FDF7DCFB10B14FF0FF30F0E6F8
:104520009DF811009DF8101040EA012B0C209BFB18
:10453000F0F0C6B20020A86068602860A0606060EB
:104540002060824665E0674A1268D17A654A5268FF
:10455000107804AB0C22FDF7BBFB10B14FF0FF301D
:10456000CFE69DF811009DF8101040EA012000B23E
:10457000ADF808009DF813009DF8121040EA0120E4
:1045800000B2ADF80A009DF815009DF8141040EA3D
:10459000012000B2ADF80C00BDF9081020680844F5
:1045A0002060BDF90A10606808446060BDF90C1015
:1045B000A0680844A0609DF817009DF8161040EA16
:1045C000012000B2ADF800009DF819009DF8181008
:1045D00040EA012000B2ADF802009DF81B009DF8F2
:1045E0001A1040EA012000B2ADF80400BDF9001035
:1045F000286808442860BDF90210686808446860AB
:10460000BDF90410A8680844A8600AF1010000F090
:10461000FF0AB24597DB3448D0F800C02868C117BC
:10462000090441EA10410704624600233846FBF7BB
:1046300000FE32460023CDE90201FBF7FAFD2860B7
:104640002948D0F800C06868C117090441EA104140
:104650000704624600233846FBF7EBFD3246002391
:10466000CDE90201FBF7E5FD68601F48D0F800C006
:10467000A868C117090441EA1041070462460023F3
:104680003846FBF7D6FD32460023CDE90201FBF7A1
:10469000D0FDA8601448D0F804C02168C8170004F1
:1046A00040EA11480F046246002338464146FBF7B2
:1046B000C0FD32460023CDE90201FBF7BAFD2060C0
:1046C0000948D0F804C06068C117090441EA1041E4
:1046D0000704624600233846FBF7ABFD3246002351
:1046E00004E00000740000209C750008CDE9020180
:1046F000FBF79FFD60601148D0F804C0A068C117A7
:10470000090441EA10410704624600233846FBF7DA
:1047100090FD32460023CDE90201FBF78AFDA0603F
:10472000A068002804DDA068A0F58030A06003E048
:10473000A06800F58030A0600020E2E59C750008CC
:104740002DE9FC5F06460F4600253D49496808787B
:1047500001AB03220D21FDF7BBFA10B10720BDE824
:10476000FC9F9DF8040000F01F008DF804009DF8E8
:10477000050000F01F008DF805009DF8060000F010
:104780001F008DF80600002456E056F8240057F864
:104790002410A0EB010BBBF1000F01DB594601E037
:1047A000CBF10001084602F097FC4FF08F410090DA
:1047B00002F060FB814601A8005D68B321490868EA
:1047C00002F0A2FC834659461F4802F053FB804684
:1047D00004E01E49404602F0DFFC804601A8005D6F
:1047E000401EC0B201A908550028F2D141464846F2
:1047F00002F040FB83464FF07E5102F0CBFD824633
:104800002AF0004B0F488169584602F091FD12D200
:104810000120A04005430EE00A480169484602F025
:1048200087FC05D307484169484602F081FD02D262
:104830000120A0400543641C032CA6DB28468EE71C
:10484000740000209C75000800B04C4554E3853F7F
:104850002DE9F04100202D4908802D4908802D497F
:1048600008802D4908802D4908802D4908802D4851
:1048700001682D48006802F0FDFA06462B480168E1
:104880002848006802F0F6FA07464FF07E5102F021
:1048900083FA0546314602F07FFA0446244801684F
:1048A000204602F079FC234908601F4801684FF058
:1048B000804002F071FC07461A480168384602F051
:1048C000D9FA06464FF07E5102F066FA04461848BF
:1048D000006880F000452146284602F05DFC16493C
:1048E0000860114801681248006802F055FC04464F
:1048F0000C480168204602F0BDFA104908604FF4E8
:10490000FA700F490880BDE8F08100000000002027
:1049100002000020240000202200002028000020A7
:104920002600002038000020340000203000002045
:104930002C0000203C00002040000020440000200B
:104940002000002010B50446204600F00FF8034672
:10495000E01C00F00BF843EAC00083B2A01D00F099
:1049600005F843EA801083B2184610BD014691F95C
:104970000020002A01DD00201EE091F90020002A1D
:1049800001DA042018E091F90120002A01DD01205C
:1049900012E091F90120002A01DA05200CE091F9DA
:1049A0000220002A01DD022006E091F90220002AFF
:1049B00001DA062000E007207047000088B001F00F
:1049C000E5FA002142F21070FDF71EFCFCF74EFFE5
:1049D0004FF4A060FDF78EFAFEF7C6FD4FF4E1300C
:1049E00001F020FCFDF71AF94FF4FA602A4908801B
:1049F0002A4908804FF4C87029490880294908804D
:104A00000846B0F9000001F053FA2548B0F900005B
:104A100001F072FA4FF47A70FEF7C8FD00202249C7
:104A2000086006E021A0FBF729FC4FF47A70FEF73E
:104A3000BDFD00F0BDF90028F4D12BE001F0D0FA63
:104A40001F480068B0F900201E480068B0F9001047
:104A50001DA0FBF713FCFCF7F7FE224A06A907A8E6
:104A600000F094F8B0B903AA04A905A8FCF73AFF2E
:104A70006A4601A902A8FCF75DFF1A48006802F027
:104A80005FF9044622460B4617A0FBF7F7FBC82048
:104A9000FEF78CFDD2E70000280000202600002051
:104AA0002400002022000020640000204D505536D4
:104AB000303530204572726F72200D0A0000000000
:104AC0001C000020180000207370656564313A25D1
:104AD000643D3D3D3D3D7370656564323A25640A31
:104AE00000000000600000200D0A2D2D2D2D2D2D21
:104AF0002D2D2DE5A7BFE68081E8A7925AE695B057
:104B0000E68DAE2D2D2D2D2D2D2D2D2D202020256A
:104B1000312E3466200D0A007047000070B504463F
:104B2000002624F00104184890F8240008B1002061
:104B300070BD1548807A10B94FF0FF30F8E7124881
:104B4000057C807A2040104908740846007CA04209
:104B500002D04FF0FF3600E0002614B90A48007D6D
:104B600018B1012001F05CF902E0002001F058F9D1
:104B70003CB100F0ABFC20B1034805744FF0FF30AE
:104B8000D6E73046D4E70000740000202DE9F04F4E
:104B900099B004460D4616464FF07E574FF0000878
:104BA0004FF000094FF0000A12A813A918AB0EAA83
:104BB000CDE9001014A916A8FEF7C6FE18B1012011
:104BC00019B0BDE8F08FBDF84C0000F480700028EB
:104BD0007ED00E9802F080FA83464FF09D4102F09D
:104BE00049F907460F9802F077FA83464FF09D4146
:104BF00002F040F98046109802F06EFA83464FF0BA
:104C00009D4102F037F98146119802F065FA83461A
:104C10004FF09D4102F02EF9824639464FF0804018
:104C200002F0BAFA4946059002F0B6FA41460790FA
:104C30004FF0404002F0B0FA5146059002F0ACFA55
:104C40000690079902F0A8F8834602F079F8CDE9BA
:104C50000801FEF743F94FF06632544BCDE90A01E3
:104C600001F094FDCDE90C0101F042FB20604946C2
:104C70004FF0804002F090FA4946029002F08CFA20
:104C8000414604904FF0404002F086FA41460290BF
:104C900002F082FA0390049902F07CFB83464FF005
:104CA0007E5102F079F8059002F04AF8CDE908014A
:104CB00039464FF0804002F06FFA4146039002F00F
:104CC0006BFA494604904FF0804002F065FA00E02C
:104CD00068E05146039002F05FFA8346049902F0BF
:104CE0005BF8059002F02CF8CDE90601DDE9082318
:104CF000FEF73CFB4FF066322C4BCDE90A0101F088
:104D000045FDCDE90C0101F0F3FA2860514650460B
:104D100002F042FA49460490484602F03DFA414604
:104D20000390404602F038FA39460190384602F0C6
:104D300033FA0090019902F02FF80290039902F0E3
:104D400029FB8346049902F025FB059001F0F8FF4A
:104D5000CDE908015146384602F01EFA4946049052
:104D6000404602F019FA0390049902F015F84FF04A
:104D70008041059002F010FA834601F0E1FFCDE991
:104D80000601DDE90823FEF7F1FA4FF06632074B22
:104D9000CDE90A0101F0FAFCCDE90C0101F0A8FA15
:104DA000306001E002200BE7002009E766A64C40D6
:104DB00070B50024FCF712FE00F024F9002840D161
:104DC000782000F02FFFC4B20CB1012070BD782014
:104DD000FFF7A4FEC4B20CB10220F7E7642000F094
:104DE000D3FEC4B20CB10320F0E7FEF7A1FDC4B2BC
:104DF0000CB10420EAE71548FFF7A4FD0546FEF7CD
:104E0000F1FFC4B20CB10520E0E740F27310FEF7E9
:104E100037FCC4B20CB10620D8E76420FEF712FFBD
:104E2000C4B20CB10720D1E700F0A4FF04460CB1D6
:104E30000820CBE7012000F0A3FDC4B21CB109207B
:104E4000C4E70A20C2E70020C0E70000A00000205D
:104E500001461148407A30B1012807D0022808D015
:104E600003280CD108E0022008700BE00420087031
:104E700008E00820087005E01020087002E04FF0FC
:104E8000FF30704700BF0448C07C18B10878400666
:104E9000000E08700020F4E774000020014613485B
:104EA000407A30B1012808D002280AD0032810D156
:104EB0000BE04FF4804008800EE041F69C700880C3
:104EC0000AE04FF48050088006E04FF4006008804C
:104ED00002E04FF0FF30704700BF0448C07C10B1C3
:104EE0000888401008800020F5E7000074000020CA
:104EF00001460248007C08700020704774000020C2
:104F000001460F48007A30B1012807D0022809D0A5
:104F100003280FD10AE0FA2008800EE04FF4FA705F
:104F200008800AE04FF47A70088006E04FF4FA60D7
:104F3000088002E00020088000BF00BF002070470A
:104F40007400002001460E48007A30B1012807D0D5
:104F5000022808D003280CD108E00A4808600BE0BA
:104F60000948086008E00948086005E0084808604A
:104F700002E04FF0FF30704700BF0020FBE7000069
:104F800074000020000003430000834233330342D7
:104F90003333834101461248C07A082817D2DFE82C
:104FA00000F01704070A0D101318BC20088013E046
:104FB0006220088010E02A2008800DE0142008807C
:104FC0000AE00A20088007E00520088004E000BF0E
:104FD00000BF0020088000BF00BF00207047000015
:104FE000740000200146064890F8240010B14FF0EC
:104FF000FF3070470248C08908800020F9E70000B0
:10500000740000201CB580208DF80000654A1268ED
:10501000917C644A526810786B460122FCF7FEFED0
:1050200010B14FF0FF301CBD6420FEF7BFFA002026
:105030008DF800005B4A1268917C5A4A52681078D9
:105040006B460122FCF7EAFE10B14FF0FF30EAE7B1
:10505000544A1268917D534A526810786B46062272
:10506000FCF736FE10B14FF0FF30DCE79DF805008D
:10507000C007400F9DF8031001F0010140EA410014
:105080009DF8011001F0010140EA010494B1012CE6
:1050900003D101214348C17431E0022C03D1002126
:1050A0004048C1742BE021463FA0FBF7E7F84FF0E2
:1050B000FF30B8E73B4A1268D1783A4A5268107814
:1050C0006B460122FCF704FE10B14FF0FF30AAE757
:1050D0009DF8000000F00F042CB93D48FBF7CEF816
:1050E0004FF0FF309FE7042C06D13AA0FBF7C6F83B
:1050F00001212C48C17402E000212A48C174FF211B
:1051000028488172FF2027490872FF2125484172F3
:10511000C1724FF6FF71C181FF21017481740121B9
:10512000017380F82210002180F823104175017569
:105130001630016041608160163880F8241080F8D4
:105140002510C1844FF4FA6000F062FC10B14FF0FA
:10515000FF3068E7022000F02BFB10B14FF0FF306A
:1051600061E72A2000F0CEFC10B14FF0FF305AE783
:10517000322000F009FD10B14FF0FF3053E700205E
:10518000FFF7CCFC10B14FF0FF304CE7002000F0EF
:1051900051FB10B14FF0FF3045E7002000F042FD19
:1051A000002040E774000020556E737570706F72B8
:1051B00074656420736F6674776172652070726FB6
:1051C00064756374207265762025642E0A000000E1
:1051D0005483000848616C662073656E7369746956
:1051E00076697479207061727420666F756E642EB2
:1051F0000A0000002DE9F04385B005460E469046B2
:105200009946294890F8250020B14FF0FF3005B0AD
:10521000BDE8F08316B94FF0FF30F8E7002423E033
:10522000281B102801DD102000E0281B87B232194E
:105230003946204600F05EFD10B14FF0FF30E6E742
:1052400001AA3946204600F001F910B14FF0FF30B5
:10525000DDE730193A4601A9FBF744F910B16FF0C8
:105260000100D4E7E01984B2AC42D9DB4FEA282030
:105270008DF8000008F0FF008DF801000A4A12685E
:10528000917E094A526810786B460222FCF7C6FDEF
:1052900010B14FF0FF30BAE70121034880F8251024
:1052A000A0F826900020B2E77400002038B504462C
:1052B000282C02DD4FF0FF3038BDDCB9002000F0B3
:1052C000EBFB00208DF8000007208DF801002E4A2E
:1052D0001268917C2C4A526810786B460222FCF7C7
:1052E0009DFD10B14FF0FF30E6E700212648017523
:1052F0000020E1E7012000F0CFFB20208DF8000026
:10530000012C06D100208DF80100052000F0FAFBE9
:1053100017E0052C06DC01208DF80100052000F0C7
:10532000F1FB0EE0142C06DC02208DF801000A20AF
:1053300000F0E8FB05E003208DF80100142000F0E8
:10534000E1FB9DF80100072101EB8010C0B28DF850
:1053500001000D4A1268917C0B4A526810786B4626
:105360000222FCF75BFD10B14FF0FF30A4E70821EB
:105370000548817200210173012101750020FFF7AA
:10538000CDFB002098E7000074000020F8B504462B
:105390000F4616462C4890F8240010B94FF0FF3005
:1053A000F8BD2948807A10B94FF0FF30F8E7264A57
:1053B0001268917A244A526810786B460222FCF7F0
:1053C00087FC10B14FF0FF30EAE79DF801009DF82F
:1053D000001040EA0125A54203DA00203070401E8B
:1053E000DEE7194840684088B5EB600F17DD164AC4
:1053F0001268517C144A526810786B460122FCF7FF
:1054000067FC10B14FF0FF30CAE79DF8000000F0D4
:10541000100020B100F05AF86FF00100C0E7E2B2CE
:10542000094B1B68D97A084B5B6818783B46FCF738
:105430004FFC10B14FF0FF30B2E795FBF4F0401E87
:1054400030700020ACE7000074000020F8B504467E
:105450000D46164616B94FF0FF30F8BD1A48807A4F
:1054600010B94FF0FF30F8E720128DF80000E0B2DD
:105470008DF801009DF801002844134949684989C5
:10548000884202DD4FF0FF30E7E70F4A1268117ED5
:105490000D4A526810786B460222FCF7BFFC10B12F
:1054A0004FF0FF30D9E7EAB2074B1B68597D064B36
:1054B0005B6818783346FCF70BFC10B14FF0FF30F7
:1054C000CBE70020C9E700007400002008B5704851
:1054D000807A10B94FF0FF3008BD002000906C4A70
:1054E0001268D17B6A4A526810786B460122FCF739
:1054F00095FC10B14FF0FF30EEE7654A1268517924
:10550000634A526810786B460122FCF787FC10B1A1
:105510004FF0FF30E0E75E4A126811795C4A52684A
:1055200010786B460122FCF779FC10B14FF0FF3088
:10553000D2E7574890F82400002853D00C20009060
:10554000534A12681179524A526810786B46012208
:10555000FCF764FC10B14FF0FF30BDE73220FEF7DE
:1055600025F8C02000904A48807A00F0010020B160
:105570009DF8000040F020000090454A1268117923
:10558000434A526810786B460122FCF747FC10B181
:105590004FF0FF30A0E73E48407C10B10220009061
:1055A00001E0002000903A4A1268D17B384A5268E4
:1055B00010786B460122FCF731FC10B14FF0FF3040
:1055C0008AE700200090324A12685179304A5268C6
:1055D00010786B460122FCF721FC002855D04FF0D3
:1055E000FF3079E704200090294A12681179284A8F
:1055F000526810786B460122FCF710FC10B14FF096
:10560000FF3069E72248807C20B92148807A00F089
:10561000010010B94020009001E0602000901C4A79
:10562000126811791A4A526810786B460122FCF709
:10563000F5FB10B14FF0FF304EE73220FDF7B6FF1B
:105640001348407C10B10120009001E00020009040
:105650000F4A1268D17B0E4A526810786B460122BD
:10566000FCF7DCFB10B14FF0FF3035E7084A126859
:105670005179074A52681078054B10330122FCF724
:10568000CDFB10B14FF0FF3026E7002024E70000EB
:10569000740000202DE9F04F8DB083460F460220A4
:1056A0000C90424890F8240020B1002000F068F9E6
:1056B000012600E0002603A8FFF722FC05A8FFF75B
:1056C000C7FB01A8FFF766FC02A8FFF78BFC374871
:1056D00090F80AA004A8FFF70BFC002407E00022C2
:1056E00039465846FEF7F4FD00B902E0641C022C6E
:1056F000F5DB00BF022C01D1002528E0002407E0E3
:10570000012206A909A8FEF7E3FD00B902E0641C26
:10571000022CF5DB00BF022C01D1002517E006A901
:105720003846FDF7BFFA00F0FF0809A95846FFF711
:1057300007F800F0FF090025B9F1000F01D145F08D
:105740000105B8F1000F01D145F0020500BFFF20AF
:1057500016490872FF2115484172C1724FF6FF7158
:10576000C181FF218172017401210173BDF80C0018
:1057700000F04EF99DF8140000F01AF8BDF804008E
:1057800000F0C0F9BDF8080000F0FEF9504600F046
:1057900049FA9DF81000FFF7C1F916B1012000F099
:1057A000EFF828460DB0BDE8F08F0000740000202F
:1057B00038B504461E48807A10B94FF0FF3038BD26
:1057C000022C06D0042C07D0082C08D0102C0CD1A9
:1057D00008E0002000900BE00820009008E0102076
:1057E000009005E01820009002E04FF0FF30E6E75F
:1057F00000BF0F48407A9DF80010B0EBE10F01D1D7
:105800000020DCE70A4A1268D179094A5268107808
:105810006B460122FCF702FB10B14FF0FF30CEE7E0
:105820009DF80000C110024841720020C7E7000047
:105830007400002038B504465048807CA04201D155
:10584000002038BD002C46D04C4A126811794B4AD2
:10585000526810786B460122FCF73AFA10B14FF00B
:10586000FF30EEE79DF8000020F020000090434A52
:1058700012681179414A526810786B460122FCF790
:10588000CDFA10B14FF0FF30DBE70320FDF78EFEBD
:1058900002200090394890F8220020B19DF80000C5
:1058A00040F080000090354890F8230020B19DF82A
:1058B000000040F030000090304A1268117D2F4AFD
:1058C000526810786B460122FCF7A8FA002851D0E4
:1058D0004FF0FF30B5E7294A12681179274A52681C
:1058E00010786B460122FCF7F3F910B14FF0FF304E
:1058F000A7E72248807A00F0010028B19DF8000057
:1059000040F02000009004E09DF8000020F020000E
:1059100000901A4A12681179184A526810786B463A
:105920000122FCF77BFA10B14FF0FF3089E703202A
:10593000FDF73CFE114890F8220010B18020009045
:1059400001E0002000900D4890F8230020B19DF860
:10595000000040F030000090084A1268117D074AAC
:10596000526810786B460122FCF758FA10B14FF0DC
:10597000FF3066E701488474002062E7740000206D
:1059800038B50446214890F82400A04201D10020F7
:1059900038BD24B31D4890F8250010B94FF0FF30F2
:1059A000F6E7002000F03CFA0020FFF743FF17491C
:1059B000C88C00F0E9F80020009014494968087884
:1059C0006B4601222321FCF729FA01210F4880F8B8
:1059D0002410012000F024FAFFF778FD13E00020E6
:1059E00000F01EFA0948007C0090084949680878D0
:1059F0006B4601222321FCF711FA0021034880F8AD
:105A00002410FFF763FD0020C2E7000074000020AF
:105A100038B504461F48807A10B94FF0FF3038BDC2
:105A2000FA2C09D0B4F5FA7F09D0B4F57A7F09D001
:105A3000B4F5FA6F0CD108E0002000900BE00820CC
:105A4000009008E01020009005E01820009002E08F
:105A50004FF0FF30E3E700BF0E48007A9DF80010DA
:105A6000B0EBE10F01D10020D9E70A4A1268917921
:105A7000084A526810786B460122FCF7CFF910B142
:105A80004FF0FF30CBE79DF80000C01001490872CD
:105A90000020C4E77400002038B50446184890F888
:105AA0002300A04201D1002038BD14B13020009065
:105AB00001E0002000901248807C20B19DF8000099
:105AC00040F0020000900E4890F8220020B19DF8AE
:105AD000000040F080000090094A1268117D084AD9
