:020000040800F2
:10000000B0070020D5010008AD050008A5050008CF
:10001000A905000889040008D70D000800000000A9
:10002000000000000000000000000000F1050008D2
:100030008D04000800000000AF0500080507000857
:10004000EF010008EF010008EF010008EF010008D0
:10005000EF010008EF010008EF010008EF010008C0
:10006000EF010008EF010008EF010008EF010008B0
:10007000EF010008EF010008EF010008EF010008A0
:10008000EF010008EF010008EF010008EF01000890
:10009000EF010008EF010008EF010008EF01000880
:1000A000EF010008EF010008EF010008EF01000870
:1000B000EF01000871070008EF010008EF010008D8
:1000C000EF010008EF010008EF010008EF01000850
:1000D000EF010008F10C0008EF010008EF01000833
:1000E000EF010008EF010008EF010008EF01000830
:1000F000EF010008EF010008EF010008EF01000820
:10010000EF010008EF010008ED080008EF0100080A
:10011000EF010008EF010008EF010008EF010008FF
:10012000EF010008EF010008EF010008EF010008EF
:1001300000F002F800F03FF80AA090E8000C8244BA
:100140008344AAF10107DA4501D100F034F8AFF297
:10015000090EBAE80F0013F0010F18BFFB1A43F0A5
:1001600001031847CC0D0000EC0D0000103A24BF2D
:1001700078C878C1FAD8520724BF30C830C144BF0C
:1001800004680C607047000000230024002500264E
:10019000103A28BF78C1FBD8520728BF30C148BFEA
:1001A0000B607047642900F07780002070471FB50E
:1001B0001FBD10B510BD00F037F91146FFF7F7FF6E
:1001C00000F064FE00F055F903B4FFF7F2FF03BC42
:1001D00000F003FE0948804709480047FEE7FEE7B4
:1001E000FEE7FEE7FEE7FEE7FEE7FEE7FEE7FEE7E7
:1001F00004480549054A064B7047000009070008F6
:1002000031010008B0010020B0070020B003002039
:10021000B0030020704700000FB4044910B503AAD2
:10022000029800F0D3F810BC5DF814FB1C0000200D
:100230002DE9F0410E460446002020622046E16888
:10024000884730B3252805D0D4E901219047206A9A
:10025000401CF2E7E168204600278847050018D0D7
:10026000A5F14100192802D820354FF40067324625
:10027000294620462760FFF795FF40B1012804D0AA
:10028000F61D26F007060836D8E7361DD6E72846BD
:10029000DAE7206ABDE8F0812DE9F0410646002446
:1002A00010687529314616A510D0AFF300800028DC
:1002B00002DA404213A507E031688A0701D512A58A
:1002C00002E0490704D511A5012401E0AFF3008045
:1002D00000210A2206F1240709E0B0FBF2FCB0FB82
:1002E000F2F302FB1C00303078541846491C0028F9
:1002F000F3D123462A463046BDE8F04100F00CB861
:10030000000000002D0000002B0000002000000075
:1003100070477047704770472DE9F0470D46994682
:100320009246044600F124080168880604D5E06975
:1003300021F01001216000E00120A84201DD471BEF
:1003400000E00027A1697A1902EB0900081AA061F0
:100350002078C00602D42046AFF30080002608E0D3
:10036000D4E901211AF806009047206A401C761C47
:1003700020624E45F4DB2078C0060AD52046AFF354
:10038000008006E0D4E9012130209047206A401C1B
:100390002062381EA7F10107F4DC07E0D4E901214F
:1003A00018F805009047206A401C2062281EA5F11D
:1003B0000105F3DC2046AFF300802078000602D56B
:1003C0000220BDE8F0870120FBE70000074B70B575
:1003D0000D467B4400F011F80446284600F020F852
:1003E00010B14FF0FF3070BD204670BD9B0A000079
:1003F00001694A1C02610878704700B58FB0CDE9E9
:1004000001310021059105497944CDE903101146D8
:100410006846FFF70DFF0FB000BD0000E5FFFFFFCE
:10042000007B00F080007047754600F029F8AE466A
:1004300005006946534620F00700854618B020B5F0
:10044000FFF7D6FEBDE820404FF000064FF0000752
:100450004FF000084FF0000B21F00701AC46ACE86C
:10046000C009ACE8C009ACE8C009ACE8C0098D46D9
:1004700070470446AFF300802046FFF7A5FE00005A
:10048000004870475001002000BFFEE770472DE98B
:10049000F04102460025002600200023002400270A
:1004A00091F803C00CF00F0591F803C00CF0100C8C
:1004B000BCF1000F03D091F802C04CEA050591F899
:1004C00000C0BCF1000F31D0146800202BE04FF0C9
:1004D000010C0CFA00F3B1F800C00CEA03069E42CE
:1004E00020D183004FF00F0C0CFA03F7BC4305FA40
:1004F00003FC4CEA040491F803C0BCF1280F06D1B8
:100500004FF0010C0CFA00FCC2F814C00AE091F89C
:1005100003C0BCF1480F05D14FF0010C0CFA00FCF0
:10052000C2F810C0401C0828D1D31460B1F800C034
:10053000BCF1FF0F34DD546800202EE000F1080C00
:100540004FF0010808FA0CF3B1F800C00CEA0306FA
:100550009E4221D183004FF00F0C0CFA03F7BC43ED
:1005600005FA03FC4CEA040491F803C0BCF1280F1F
:1005700005D100F1080C08FA0CF8C2F8148091F8C3
:1005800003C0BCF1480F07D100F1080C4FF001087F
:1005900008FA0CF8C2F81080401C0828CED354602A
:1005A000BDE8F08100BFFEE700BFFEE7704770477F
:1005B00029B1064AD2690243044BDA6104E0034AD6
:1005C000D2698243014BDA6170470000001002409B
:1005D00029B1064A92690243044B9A6104E0034A36
:1005E00092698243014B9A617047000000100240FB
:1005F000704710B500F002F810BD00000CB50020E7
:10060000019000903348006840F480303149086020
:1006100000BF3048006800F4003000900198401C92
:100620000190009818B90198B0F5A06FF1D1294850
:10063000006800F4003010B10120009001E00020BB
:1006400000900098012843D12348006840F0100032
:10065000214908600846006820F003000860084649
:10066000006840F0020008601A4840681949486074
:100670000846406848600846406840F4806048602A
:100680000846406820F47C1048600846406840F402
:10069000E81048600846006840F08070086000BFBD
:1006A0000C48006800F000700028F9D00948406844
:1006B00020F00300074948600846406840F0020007
:1006C000486000BF0348406800F00C000828F9D1DA
:1006D0000CBD00000010024000200240042808D198
:1006E0004FF0E021096941F004014FF0E02211616F
:1006F00007E04FF0E021096921F004014FF0E0220A
:10070000116170477047000010B51348006840F051
:1007100001001149086008464068104908400E4928
:100720004860084600680E4908400B4908600846C2
:10073000006820F4802008600846406820F4FE002D
:1007400048604FF41F008860FFF753FF4FF00060D0
:100750000449086010BD0000001002400000FFF8CE
:10076000FFFFF6FE08ED00E04FF0804188847047FF
:1007700010B50121104800F0F4F8E0B101210E4855
:1007800000F0E0F84FF08040808C0C49088008466B
:1007900001880BA0FFF740FD0020FFF7E5FF0B48A5
:1007A00000880B490880084601880AA0FFF734FD3D
:1007B000002000F095F810BD000400401400002057
:1007C0007370656564313A256400000024080040B8
:1007D000160000207370656564323A2564000000DD
:1007E00030B589B005460C4601210220FFF7E0FE36
:1007F00001210C20FFF7ECFE0120ADF820001820AD
:100800008DF8230003208DF8220008A93148FFF756
:100810003EFE0220ADF8200008A92E48FFF737FE63
:100820004020ADF8200008A92B48FFF730FE8020BB
:10083000ADF8200008A92848FFF729FEADF81850A8
:10084000ADF814400020ADF81A00ADF8160005A967
:10085000224800F0FBF96020ADF804000120ADF85B
:1008600006000020ADF80C0001A91C4800F08AF831
:1008700001A91A4800F0DCF801A9184800F038F97D
:1008800001A9164800F08EF90821144800F0C6F8B6
:100890000821124800F01EF90821104800F078F9EC
:1008A00008210E4800F0BCF901210C4800F04DF879
:1008B00000210A4800F0C1F90021084800F0BFF902
:1008C0000021064800F0BDF90021044800F0BBF902
:1008D00009B030BD000C0140000801400004004098
:1008E00001490880704700002408004070B50025C9
:1008F000002401210F4800F034F8C8B101210D484F
:1009000000F020F80C48008800F4004080B10A484C
:100910000088C0F30D0500BF05E00848005D0849E8
:100920000855601C84B2AC42F7DB00200249088005
:1009300070BD0000000C0040200000208800002056
:1009400024000020CA430282704721B1028842F08D
:100950000102028004E002884FF6FE731A40028012
:10096000704730B50246002000230024158A05EAAE
:100970000103958905EA010413B10CB1012000E0DF
:10098000002030BD70B5002400220023058C4FF6F6
:10099000FE7635400584028C8388048B4FF68F7574
:1009A0002C40B51E2C400D882C43751E2A400D8905
:1009B0002A434D882A43144DA8420BD0134DA84218
:1009C00008D0134DA84205D0124DA84202D0124DB6
:1009D000A84213D14FF6F7752A404D892A434FF6A6
:1009E000FB752A408D882A434FF6FF652B404FF652
:1009F000FF552B408D892B43CD892B438380048366
:100A0000CD888586028470BD002C014000340140F1
:100A10000040014000440140004801400A460021D6
:100A2000018B4FF6F77319401143018370470000A3
:100A300070B5002400220023058C4FF6EF76354078
:100A40000584028C8388048B48F6FF752C404FF692
:100A5000FF452C400D884FF6FF7606EA05252C430E
:100A60004FF6DF752A400D8906EA05152A434D88A1
:100A700006EA05152A43154DA84202D0144DA84296
:100A80001DD14FF67F752A404D894FF6FF7606EA55
:100A900005152A434FF6BF752A408D8806EA0515CD
:100AA0002A434FF6FF352B404FF2FF752B408D89BF
:100AB00006EA85052B43CD8906EA85052B4383800D
:100AC0000483CD880587028470BD0000002C01409E
:100AD000003401400A460021018B4FF2FF73194098
:100AE0004FF6FF7303EA02231943018370470000A6
:100AF00070B5002400220023058C4FF6FF663540B8
:100B00000584028C8388848B4FF68F752C404FF6BA
:100B1000FC752C400D882C434FF6FF552A400D895B
:100B20004FF6FF7606EA05252A434D8806EA052595
:100B30002A43154DA84202D0144DA8421DD14FF2B0
:100B4000FF752A404D894FF6FF7606EA05252A43B0
:100B50004FF6FF352A408D8806EA05252A434EF6D2
:100B6000FF752B404DF6FF752B408D8906EA051564
:100B70002B43CD8906EA05152B4383808483CD88DA
:100B80008587028470BD0000002C014000340140C4
:100B90000A460021818B4FF6F77319401143818378
:100BA0007047000070B5002200230024058C4EF62B
:100BB000FF7635400584038C8488828B48F6FF7568
:100BC0002A404FF6FF452A400D884FF6FF7606EA89
:100BD00005252A434DF6FF752B400D8906EA05359C
:100BE0002B434D8806EA05352B430B4DA84202D016
:100BF0000A4DA84208D14BF6FF752C408D894FF65F
:100C0000FF7606EA85152C4384808283CD88A0F880
:100C10004050038470BD0000002C014000340140AE
:100C20000A460021818B4FF2FF7319404FF6FF7384
:100C300003EA022319438183704781867047018745
:100C4000704781877047A0F84010704700220288E3
:100C50001D4B98420ED01D4B98420BD0B0F1804FE7
:100C600008D01B4B984205D01A4B984202D01A4B21
:100C7000984204D14FF68F731A404B881A43174B92
:100C8000984207D0164B984204D04FF6FF431A40C3
:100C9000CB881A4302808B8883850B8803850A4B97
:100CA00098420BD0094B984208D00E4B984205D081
:100CB0000D4B984202D00D4B984201D10B7A03861E
:100CC0000123838270470000002C01400034014062
:100CD0000004004000080040000C004000100040EC
:100CE0000014004000400140004401400048014021
:100CF00010B540F225511D4800F03EF810B31B48D6
:100D000000F064F8C4B21A48008800F40040C8B982
:100D10001748008800F4804060B10A2C03D00020FE
:100D20001349088020E01248008840F40040104930
:100D3000088019E00D2C06D10D48008840F4804051
:100D40000B49088010E00A480088C0F30D000949EB
:100D50000C5407480088401C054908800846008854
:100D6000C72801DD0020088010BD000000380140C8
:100D7000200000208800002070B5024600240023D7
:100D80000025002040F66A16B14200D100BFC1F331
:100D9000421501F01F03012606FA03F3012D02D1CB
:100DA0009689334006E0022D02D1168A334001E0D5
:100DB000968A33400C12012606FA04F41688344051
:100DC00013B10CB1012000E0002070BD01468888FD
:100DD000C0F30800704700BFFEE7014600BF704740
:100DE00010B56FF00400FFF779FC0A4800680A4963
:100DF000B0FBF1F0094908700846007800EB4001AB
:100E0000C1EBC0104FF6FF7101EAC0000449088031
:100E100010BD00000000002000127A001800002021
:100E20001A0000200146114A12884A434FF0E0237D
:100E30005A6100229A611A46126942F001021A614F
:100E400000BF4FF0E022106900F001021AB100F477
:100E50008032002AF5D04FF0E022126922F0010220
:100E60004FF0E0231A6100229A6170471A000020B7
:100E700000BF054A128802F04002002AF9D0C2B22F
:100E8000014B1B1D1A80704700380140FFF7A8FF77
:100E9000002142F21070FFF7A3FC45E042F210710E
:100EA0002248FFF7CAFE00212048FFF7C8FE44F69B
:100EB0002060FFF7B7FF00211C48FFF7BEFE42F29B
:100EC00010711A48FFF7BBFE44F62060FFF7AAFF37
:100ED00000211648FFF7B1FE00211448FFF7AFFECE
:100EE00042F210711148FFF7ACFE00210F48FFF7E6
:100EF000AAFE44F62060FFF795FF00210B48FFF79C
:100F0000A0FE42F210710948FFF79DFE44F62060F2
:100F1000FFF788FF42F210710448FFF792FE42F299
:100F200010710248FFF78FFEB8E700000004004090
:100F3000500F000800000020240000006C01000891
:100F4000740F0008240000208C07000088010008AE
:100F500000A24A0400000000000000000102030497
:100F60000607080900000000000000000000000063
:040F7000000000007D
:04000005080001D519
:00000001FF
