:020000040800F2
:10000000D8070020DD01000829070008C506000800
:1000100025070008110500088713000800000000EC
:10002000000000000000000000000000B50800080B
:1000300015050008000000009D070008C909000818
:10004000F7010008F7010008F7010008F7010008B0
:10005000F7010008F7010008F7010008F7010008A0
:10006000F7010008F7010008F7010008F701000890
:10007000F7010008F7010008F7010008F701000880
:10008000F7010008F7010008F7010008F701000870
:10009000F7010008F7010008F7010008F701000860
:1000A000F7010008F7010008F7010008F701000850
:1000B000F7010008F7010008F7010008F701000840
:1000C000F7010008F7010008F7010008F701000830
:1000D000F701000865110008F7010008F7010008A2
:1000E000F7010008F7010008F7010008F701000810
:1000F000F7010008F7010008F7010008F701000800
:10010000F7010008F7010008050C0008F7010008D6
:10011000F7010008F7010008C10C0008F70100080A
:10012000F7010008F7010008F7010008F7010008CF
:1001300000F002F800F042F80AA090E8000C8244B7
:100140008344AAF10107DA4501D100F037F8AFF294
:10015000090EBAE80F0013F0010F18BFFB1A43F0A5
:100160000103184788160000A8160000103A24BFA3
:1001700078C878C1FAD8520724BF30C830C144BF0C
:1001800004680C607047000000230024002500264E
:10019000103A28BF78C1FBD8520728BF30C148BFEA
:1001A0000B607047642900F0A580632900F0458149
:1001B000002070471FB51FBD10B510BD00F078F9C5
:1001C0001146FFF7F7FF01F00BFA00F096F903B4C0
:1001D000FFF7F2FF03BC01F0D8F8000009488047A0
:1001E00009480047FEE7FEE7FEE7FEE7FEE7FEE719
:1001F000FEE7FEE7FEE7FEE704480549054A064B31
:1002000070470000CD09000831010008D801002026
:10021000D8070020D8030020D80300207047000032
:100220000FB4044910B503AA029800F013F910BCEA
:100230005DF814FB300000202DE9F0410E46044625
:10024000002020622046E168884730B3252805D089
:10025000D4E901219047206A401CF2E7E16820467A
:1002600000278847050018D0A5F14100192802D8B9
:1002700020354FF400673246294620462760FFF7B5
:1002800091FF40B1012804D0F61D26F0070608367C
:10029000D8E7361DD6E72846DAE7206ABDE8F081C0
:1002A00070B50C460546012A05D02878800600D591
:1002B000EA69002302E0012305E05B1C934202D2BD
:1002C000E05C0028F9D1A869E618C01AA861286A7C
:1002D000184428622846AFF3008004E0D5E90121E4
:1002E00014F8010B9047B442F8D32846AFF30080CE
:1002F00070BD00002DE9F041064600241068752904
:10030000314616A510D0AFF30080002802DA404233
:1003100013A507E031688A0701D512A502E0490755
:1003200004D511A5012401E0AFF3008000210A22C9
:1003300006F1240709E0B0FBF2FCB0FBF2F302FB8C
:100340001C00303078541846491C0028F3D123464D
:100350002A463046BDE8F04100F00CB8000000002D
:100360002D0000002B0000002000000070477047A7
:10037000704770472DE9F0470D469946924604466E
:1003800000F124080168880604D5E06921F0100115
:10039000216000E00120A84201DD471B00E00027AA
:1003A000A1697A1902EB0900081AA0612078C00639
:1003B00002D42046AFF30080002608E0D4E90121F2
:1003C0001AF806009047206A401C761C20624E45B1
:1003D000F4DB2078C0060AD52046AFF3008006E0A3
:1003E000D4E9012130209047206A401C2062381E49
:1003F000A7F10107F4DC07E0D4E9012118F80500B2
:100400009047206A401C2062281EA5F10105F3DCFC
:100410002046AFF300802078000602D50220BDE818
:10042000F0870120FBE710B5436913B1AFF30080FB
:1004300001E0FFF735FF012010BD127800F1240123
:100440000A7000224A700122EDE711684FF0FF3276
:10045000E9E70000074B70B50D467B4400F011F84A
:100460000446284600F020F810B14FF0FF3070BD70
:10047000204670BD2711000001694A1C02610878FE
:10048000704700B58FB0CDE90131002105910549D4
:100490007944CDE9031011466846FFF7CDFE0FB051
:1004A00000BD0000E5FFFFFF007B00F0800070470B
:1004B000754600F029F8AE4605006946534620F01F
:1004C0000700854618B020B5FFF796FEBDE820402E
:1004D0004FF000064FF000074FF000084FF0000B00
:1004E00021F00701AC46ACE8C009ACE8C009ACE8B3
:1004F000C009ACE8C0098D4670470446AFF30080E0
:100500002046FFF764FE0000004870477801002095
:1005100000BFFEE770472DE9F041024600250026A6
:10052000002000230024002791F803C00CF00F05E1
:1005300091F803C00CF0100CBCF1000F03D091F83F
:1005400002C04CEA050591F800C0BCF1000F31D0A3
:10055000146800202BE04FF0010C0CFA00F3B1F806
:1005600000C00CEA03069E4220D183004FF00F0C1E
:100570000CFA03F7BC4305FA03FC4CEA040491F8B7
:1005800003C0BCF1280F06D14FF0010C0CFA00FC9F
:10059000C2F814C00AE091F803C0BCF1480F05D1BD
:1005A0004FF0010C0CFA00FCC2F810C0401C0828E7
:1005B000D1D31460B1F800C0BCF1FF0F34DD546832
:1005C00000202EE000F1080C4FF0010808FA0CF3AF
:1005D000B1F800C00CEA03069E4221D183004FF01F
:1005E0000F0C0CFA03F7BC4305FA03FC4CEA0404B5
:1005F00091F803C0BCF1280F05D100F1080C08FAEE
:100600000CF8C2F8148091F803C0BCF1480F07D170
:1006100000F1080C4FF0010808FA0CF8C2F810803D
:10062000401C0828CED35460BDE8F081F0B50A46DE
:10063000002300240021002500F00046B6F1004F01
:1006400002D11D4EF16901E01B4E7168C0F30345F4
:1006500083B200F44016B6F5401F08D121F0706156
:10066000154E766826F07066134F7E6012E000F437
:100670008016B6F5801F06D1032606FA05F4A143BD
:1006800041F0706106E0460D360103FA06F6B1430B
:1006900041F0706122B1460D360103FA06F631438E
:1006A00000F00046B6F1004F02D1034EF16101E0C7
:1006B000014E7160F0BD00000000014041617047D3
:1006C0000161704700BFFEE710B54FF48051064846
:1006D000FFF7F6FF4FF4967000F02EFF4FF48051B5
:1006E0000148FFF7EBFF10BD000C014008B50121E8
:1006F000082000F065F84FF48050ADF8000010209D
:100700008DF8030003208DF8020069460448FFF7C6
:1007100002FF4FF480510248FFF7D0FF08BD0000F0
:10072000000C014000BFFEE77047000070B50021DB
:1007300000230F22C47804B3154C246804F4E06449
:10074000C4F5E064210AC1F10403CA40447804FA04
:1007500003F184781440214309010E4C0678A15519
:10076000047804F01F050124AC4005786D11AD003C
:1007700005F1E025C5F8004109E0047804F01F0503
:100780000124AC40044D0678761145F8264070BD32
:100790000CED00E000E400E080E100E070470000C4
:1007A00029B1064AD2690243044BDA6104E0034AE4
:1007B000D2698243014BDA617047000000100240A9
:1007C00029B1064A92690243044B9A6104E0034A44
:1007D00092698243014B9A61704700000010024009
:1007E00030B500210022002400232D4D6D6805F056
:1007F0000C0121B1042905D0082923D105E0294D98
:10080000056022E0274D05601FE0254D6D6805F469
:100810007012234D6D6805F48034022505EB924279
:100820001CB9214D554305600BE01D4D6D6805F465
:1008300000351DB11C4D5543056002E0194D55436F
:10084000056002E0174D056000BF00BF144D6D68E4
:1008500005F0F0010909154D6B5C0568DD40456048
:100860000F4D6D6805F4E061090A104D6B5C456839
:10087000DD4085600A4D6D6805F46051C90A0B4D75
:100880006B5C4568DD40C560054D6D6805F4404111
:10089000890B074D6B5CC568B5FBF3F5056130BD91
:1008A0000010024000127A0000093D0036000020CE
:1008B00046000020704710B500F002F810BD00009F
:1008C0000CB50020019000903348006840F480305F
:1008D0003149086000BF3048006800F400300090E3
:1008E0000198401C0190009818B90198B0F5A06FCC
:1008F000F1D12948006800F4003010B101200090C7
:1009000001E0002000900098012843D123480068AE
:1009100040F01000214908600846006820F00300FC
:1009200008600846006840F0020008601A48406805
:10093000194948600846406848600846406840F4E5
:10094000806048600846406820F47C104860084693
:10095000406840F4E81048600846006840F0807045
:10096000086000BF0C48006800F000700028F9D053
:100970000948406820F0030007494860084640687D
:1009800040F00200486000BF0348406800F00C00DF
:100990000828F9D10CBD00000010024000200240E0
:1009A000042808D14FF0E021096941F004014FF01B
:1009B000E022116107E04FF0E021096921F0040114
:1009C0004FF0E022116170477047000010B51348E6
:1009D000006840F00100114908600846406810496D
:1009E00008400E494860084600680E4908400B4917
:1009F00008600846006820F48020086008464068C7
:100A000020F4FE0048604FF41F008860FFF753FF9A
:100A10004FF000600449086010BD00000010024063
:100A20000000FFF8FFFFF6FE08ED00E0174AD2696C
:100A300042F00102154BDA611A46926942F0040253
:100A40009A61134A126842F04402114B1A60DA04A8
:100A500090851185128B42F00102DB041A831A463D
:100A6000128B42F480721A831A46128C1A841A4628
:100A7000128C1A841A46128942F003021A811A460D
:100A8000128842F001021A807047000000100240F4
:100A9000000801404FF080418884704730B589B02C
:100AA00005460C4601210220FFF77AFE01211120A4
:100AB000FFF786FE01212E48FFF7B8FD4FF4707056
:100AC000ADF8200018208DF8230003208DF82200B7
:100AD00008A92848FFF71FFDADF81850ADF81440DD
:100AE0000020ADF81A00ADF8160005A9224800F064
:100AF000E7FA6020ADF804000120ADF80600002000
:100B0000ADF80C0001A91C4800F076F901A91A48BB
:100B100000F0C8F901A9184800F024FA01A9164804
:100B200000F07AFA0821144800F0B2F908211248BE
:100B300000F00AFA0821104800F064FA08210E4873
:100B400000F0A8FA01210C4800F02FF900210A4812
:100B500000F0ADFA0021084800F0ABFA0021064889
:100B600000F0A9FA0021044800F0A7FA09B030BD4E
:100B7000000C1A0000100140000400401B4AD2691A
:100B800042F00402194BDA611A46926942F00802F7
:100B90009A61174A126842F08842154B1A60154A4A
:100BA0001080121F1180134A143A128844F2411324
:100BB0001A43104B143B1A800E4A0C3A128842F02A
:100BC00011020C4B0C3B1A800A4A243A128842F05C
:100BD0000302084B243B1A80064A2C3A128842F042
:100BE0000102044B2C3B1A807047000000100240A9
:100BF000000801402C0800400149088070470000AF
:100C00002408004070B50025002401210F4800F0A1
:100C1000D8F8C8B101210D4800F0C4F80C4800888C
:100C200000F4004080B10A480088C0F30D0500BF01
:100C300005E00848005D08490855601C84B2AC42D4
:100C4000F7DB00200249088070BD0000000C004066
:100C500034000020B00000204C0000207FB5054685
:100C60000C4601210820FFF79BFDADF80850ADF8B8
:100C700004400020ADF80A00ADF8060001A90E48B6
:100C800000F01EFA012211460C4800F0ABF83220A9
:100C90008DF8000000208DF8010004208DF802007E
:100CA00001208DF803006846FFF740FD012103484D
:100CB00000F07BF87FBD000000100040000C0040F9
:100CC00008B50121174800F07CF850B30121154800
:100CD00000F068F84FF08040808C13490968088064
:100CE000124800881249096808800020FFF7D2FEE8
:100CF0000020FFF781FF002000900B480068028869
:100D00000C4803880C49002000F042FB01200090B1
:100D1000074800680288094803880949002000F054
:100D200037FB08BD001000401800002024080040D8
:100D30001C000020220000202600002024000020AB
:100D4000280000207FB505460C4601211020FFF742
:100D500027FDADF80850ADF804400020ADF80A00BA
:100D6000ADF8060001A90E4800F0AAF901221146CB
:100D70000B4800F037F836208DF8000000208DF881
:100D8000010003208DF8020001208DF80300684661
:100D9000FFF7CCFC0121024800F007F87FBD0000FE
:100DA00000100040CA430282704721B1028842F01D
:100DB0000102028004E002884FF6FE731A400280AE
:100DC000704730B50246002000230024158A05EA4A
:100DD0000103958905EA010413B10CB1012000E07B
:100DE000002030BD1AB183890B43838102E08389DF
:100DF0008B4383817047000070B5002400220023DC
:100E0000058C4FF6FE7635400584028C8388048B72
:100E10004FF68F752C40B51E2C400D882C43751E47
:100E20002A400D892A434D882A43144DA8420BD0ED
:100E3000134DA84208D0134DA84205D0124DA84228
:100E400002D0124DA84213D14FF6F7752A404D89B2
:100E50002A434FF6FB752A408D882A434FF6FF65DB
:100E60002B404FF6FF552B408D892B43CD892B43CB
:100E700083800483CD888586028470BD002C014068
:100E8000003401400040014000440140004801405E
:100E90000A460021018B4FF6F77319401143018375
:100EA0007047000070B5002400220023058C4FF627
:100EB000EF7635400584028C8388048B48F6FF75F5
:100EC0002C404FF6FF452C400D884FF6FF7606EA82
:100ED00005252C434FF6DF752A400D8906EA0515D6
:100EE0002A434D8806EA05152A43154DA84202D02B
:100EF000144DA8421DD14FF67F752A404D894FF6FB
:100F0000FF7606EA05152A434FF6BF752A408D88FD
:100F100006EA05152A434FF6FF352B404FF2FF75C1
:100F20002B408D8906EA85052B43CD8906EA850588
:100F30002B4383800483CD880587028470BD000025
:100F4000002C0140003401400A460021018B4FF281
:100F5000FF7319404FF6FF7303EA0223194301831D
:100F60007047000070B5002400220023058C4FF666
:100F7000FF6635400584028C8388848B4FF68F751D
:100F80002C404FF6FC752C400D882C434FF6FF5536
:100F90002A400D894FF6FF7606EA05252A434D883B
:100FA00006EA05252A43154DA84202D0144DA84251
:100FB0001DD14FF2FF752A404D894FF6FF7606EAA4
:100FC00005252A434FF6FF352A408D8806EA052578
:100FD0002A434EF6FF752B404DF6FF752B408D8949
:100FE00006EA05152B43CD8906EA05152B438380B8
:100FF0008483CD888587028470BD0000002C014069
:10100000003401400A460021818B4FF6F7731940E6
:10101000114381837047000070B500220023002433
:10102000058C4EF6FF7635400584038C8488828BD0
:1010300048F6FF752A404FF6FF452A400D884FF6C7
:10104000FF7606EA05252A434DF6FF752B400D89EC
:1010500006EA05352B434D8806EA05352B430B4D33
:10106000A84202D00A4DA84208D14BF6FF752C4089
:101070008D894FF6FF7606EA85152C43848082839E
:10108000CD88A0F84050038470BD0000002C0140C2
:10109000003401400A460021818B4FF2FF73194052
:1010A0004FF6FF7303EA0223194381837047818659
:1010B00070470187704781877047A0F840107047DC
:1010C000002202881D4B98420ED01D4B98420BD037
:1010D000B0F1804F08D01B4B984205D01A4B984274
:1010E00002D01A4B984204D14FF68F731A404B88A6
:1010F0001A43174B984207D0164B984204D04FF62C
:10110000FF431A40CB881A4302808B8883850B8863
:1011100003850A4B98420BD0094B984208D00E4BDE
:10112000984205D00D4B984202D00D4B984201D108
:101130000B7A03860123838270470000002C014054
:10114000003401400004004000080040000C004052
:1011500000100040001400400040014000440140E5
:101160000048014010B540F225511D4800F04AF8F2
:1011700010B31B4800F002F9C4B21A48008800F40A
:101180000040C8B91748008800F4804060B10A2CBC
:1011900003D000201349088020E01248008840F462
:1011A00000401049088019E00D2C06D10D48008838
:1011B00040F480400B49088010E00A480088C0F3E2
:1011C0000D0009490C5407480088401C0549088057
:1011D00008460088C72801DD0020088010BD0000F7
:1011E0000038014034000020B000002021B1828985
:1011F00042F40052828104E082894DF6FF731A4066
:101200008281704770B5024600240023002500202B
:1012100040F66A16B14200D100BFC1F3421501F099
:101220001F03012606FA03F3012D02D196893340EC
:1012300006E0022D02D1168A334001E0968A33403F
:101240000C12012606FA04F41688344013B10CB1CE
:10125000012000E0002070BDF0B503460024002608
:101260000025002040F66A17B94200D100BF184699
:10127000C1F3421401F01F06012707FA06F5012CFD
:1012800001D10C3004E0022C01D1103000E0143008
:101290001AB107682F43076002E00768AF43076091
:1012A000F0BD00002DE9F04786B005460E4600244B
:1012B000A24600BFA1460027B08900B100BF2F465B
:1012C0002C8A4CF6FF700440F08804432C82AC89D1
:1012D0004EF6F3100440B088318908437189084301
:1012E0000443AC81AC8A4FF6FF400440B08904430C
:1012F000AC8201A8FFF774FA1F48874202D1DDF8DB
:1013000010A001E0DDF80CA0A88900F4004040B175
:101310000AEBCA0000EB0A1031684900B0FBF1F893
:1013200007E00AEBCA0000EB0A1031688900B0FB45
:10133000F1F86420B8FBF0F004012009642101FBFE
:101340001089A88900F4004040B1322000EBC900A8
:10135000B0FBF1F000F00700044308E0322000EB9E
:1013600009106421B0FBF1F000F00F0004432C8160
:1013700006B0BDE8F08700000038014001468888CB
:10138000C0F30800704700BFFEE7014600BF70478A
:101390002DE9F84381460C4616461F46089DBE427D
:1013A00030DDF01B00EB400101EB8010642190FB6D
:1013B000F1F01FFA80F82088A0EB0800208085B9A2
:1013C0002A48008800902A48006803882948028833
:1013D00005F1310128A0FEF723FF208800F044F931
:1013E00041E0334800880090324800680388324862
:1013F000028805F1310120A0FEF712FF208800F0DD
:1014000057F930E0BE422EDAB81B00EB400101EB89
:101410008010642190FBF1F01FFA80F8208840448E
:10142000208085B911480088009011480068038821
:101430001048028805F1310120A0FEF7F1FE208856
:1014400000F012F90FE01A4800880090194800686F
:1014500003881948028805F1310118A0FEF7E0FE63
:10146000208800F025F9BDE8F88300002200002064
:101470001800002026000020256320746F6F20666E
:1014800061737421737572666163655F73706565FE
:10149000643A25642C73706565643A25642C746124
:1014A000726765745F73706565643A25640A00004D
:1014B000240000201C000020280000202563207448
:1014C0006F6F20736C6F7721737572666163655FF0
:1014D00073706565643A25642C73706565643A259C
:1014E000642C7461726765745F73706565643A2516
:1014F000640A000010B56FF00400FFF751FA0A48C3
:1015000000680A49B0FBF1F0094908700846007804
:1015100000EB4001C1EBC0104FF6FF7101EAC000C3
:101520000449088010BD00000400002000127A0069
:101530002A0000202C0000200146114A12884A434C
:101540004FF0E0235A6100229A611A46126942F074
:1015500001021A6100BF4FF0E022106900F00102A1
:101560001AB100F48032002AF5D04FF0E02212695F
:1015700022F001024FF0E0231A6100229A617047C5
:101580002C00002000BF054A128802F04002002A09
:10159000F9D0C2B2014B1B1D1A80704700380140C0
:1015A000002008490880084908800849088008493F
:1015B000088008490880084908804FF4FA700749F4
:1015C0000880704700000020020000202400002056
:1015D00022000020280000202600002020000020FB
:1015E00000F08AF8002142F21070FFF757FA4FF42A
:1015F000E13000F0ABF84FF4FA600E4908800E4974
:1016000008804FF416700D4908800D490880FFF7D7
:101610006DF80EE00B48006802880B4800680188EE
:101620000AA0FEF7FDFD4FF45E70FFF785FFFFF7A0
:101630004BF8EFE7280000202600002024000020BF
:10164000220000201C000020180000207370656537
:1016500064313A25643D3D3D3D3D737065656432BE
:101660003A25640A0000000010B50446002C0CDB8B
:1016700042F21070844208DCA1B20B48FFF717FD5C
:1016800000210948FFF715FD0DE0002C0BDA074893
:10169000844208DB00210448FFF709FD604281B263
:1016A0000148FFF706FD10BD00040040F0D8FFFF21
:1016B00010B50446002C0CDB42F21070844208DCAA
:1016C000A1B20B48FFF7F7FC00210948FFF7F5FC32
:1016D0000DE0002C0BDA0748844208DB00210448A7
:1016E000FFF7E9FC604281B20148FFF7E6FC10BD5C
:1016F00000040040F0D8FFFF10B5FFF751FF0F487E
:101700000F4908600F481049086041F61F4140F238
:10171000E730FFF717FB41F61F4142F20F70FFF76A
:101720009DFA00214FF6FF70FFF780F900214FF678
:10173000FF70FFF723FAFFF7DDFE10BD0000002069
:1017400018000020020000201C00002010B586B008
:101750000446012144F20400FFF732F84FF4007010
:10176000ADF8140003208DF8160018208DF817002E
:1017700005A91C48FEF7CFFE4FF48060ADF81400B9
:1017800004208DF8170005A91648FEF7C4FE252091
:101790008DF8000003208DF801008DF80200012073
:1017A0008DF803006846FEF7C1FF01940020ADF8F4
:1017B0000800ADF80A00ADF80C00ADF810000C20E0
:1017C000ADF80E0001A90848FFF76CFD012240F2B8
:1017D00025510548FFF740FD01210348FFF706FDAD
:1017E00006B010BD00080140003801400C18000888
:1017F000000000204C0000006C0100085818000890
:101800004C0000208C070000880100080000000048
:1018100000A24A04000000000000000001020304CE
:10182000060708090000000000000000000000009A
:1018300000000000000000000000000000000000A8
:101840000000000000000102030401020304060777
:0818500008090204060800006B
:04000005080001DD11
:00000001FF
